:020000040000FA
:0A00060023298B13A0000308A100BA
:1000100083010408A2000A08A3008A018301851055
:100020008A018C1AE828391BB3288C182C280B1845
:100030006A20831203132A082B04031D05100319D9
:10004000051485148312031323088A0022088400F0
:100050002108830020080900A70139208C10121103
:10006000831603138C108312031386010B108B1558
:100070000E2808308A0027080F3900208A110A123A
:100080006120A9002708AC00291C2C164D20A70AC6
:1000900027080F39031D392808002A30AC19013E02
:1000A000840008308A002C0807391120A8008A1122
:1000B0000A122C1E5E2828098005080028088004E2
:1000C0000800A8008600A80906092805F039031DC4
:1000D00001340034831603138C14FF309200831212
:1000E00003138C10920091018C108B110B100800DF
:1000F000860183160317890183160313F0309500D8
:10010000831603138600811383160313FF309600B2
:1001100083120313AA01AB018B150B17080083167A
:1001200003170830870083160313083099009A01DB
:10013000243098008C160C12831203139030980010
:10014000B901BA01BB010800391741309900543098
:100150009900831603130C168312031308009900E9
:1001600008001A0808000C1E15283918C228B918EA
:10017000D1283919DE28BB01BA01391383160313BC
:100180000C120E2808308A003A086720FF3903193C
:100190003910BA0A8A110A123918AF20391CBA016B
:1001A0000E283A08103E8317840000080319B9107E
:1001B000BA0AB918AF20B91CBA010E283A0816219C
:1001C00003193911BA0A3919AF20391DBA010E289D
:1001D0003B081F3E84008317B12080000D300006CD
:1001E0000319B917BB0A0E28831603130C128312C6
:1001F0000313AD01AE01AF010800831203178C0099
:10020000831203132F1C2E08831203172F1C8D003B
:10021000831603178C130C158B138B1B0C2955306D
:100220008D00AA308D008C140C1109008312031765
:100230008D00831603178C130C14831203170C08FC
:100240008312031308008B138A110A1278208A1173
:100250000A126A218A110A12E5238A110A128F20D2
:100260008A110A12B001B101B201B3018B1701303A
:100270008A003008003A0319782101308A0083018E
:100280003008013A0319B72102308A00830130088F
:10029000023A0319102202308A0083013008033A1F
:1002A0000319512202308A0083013008043A0319ED
:1002B000832203308A0083013008053A0319202382
:1002C00003308A0083013008063A0319AA238A11F1
:1002D0000A123729831603178801831603130510A2
:1002E00085100511831203130514851405150800E4
:1002F000003083120313B000311C88290511B11C92
:10030000AA29311DB7292B082A04031D3110080022
:10031000BB01B901391439176830BA00A42083161B
:1003200003130C1683120313311401301A24813085
:100330001A24B30108308A0033081A20FF398A11C1
:100340000A120319A6291824B30A9A290530B20003
:10035000B1100800B91F08001F308400831700087F
:10036000303A0319B114B11C3110BB0108008312DB
:1003700003133008013A031DB1010130B000C2215E
:10038000DE290800831203133208013A031908001A
:1003900001301A2485301A24B30108308A0033084A
:1003A0002A20FF398A110A120319D9291824B30AFD
:1003B000CD29831203130130B20008008312031306
:1003C0002B08031DB1012A08DE39031DB101311CC0
:1003D000F129B11CF929311D012AB11D092A311E4B
:1003E000102A2A1831142A1C3110AA1A3110B110FF
:1003F00008002A1C3110AA1AB114AA1EB11031111A
:1004000008002A1831112A1C3115AA1EB110B11189
:1004100008002A183111AA1AB111AA1EB115080034
:10042000831203133008023A031DB1010230B000F9
:100430001D2239223119512A080083120313320870
:10044000023A0319080001301A2485301A24B30136
:1004500008308A0033083320FF398A110A12031941
:10046000342A1824B30A282A831203130230B20054
:100470000800311C3D2AB11C442A2A082B04031908
:100480003114B110AF200800AA08031D31102B0849
:100490007F39031D3110AB1B3115311DB114AF2055
:1004A0000800831203133008033A031DB1013330EF
:1004B000AF200330B000602239223119832A0800AE
:1004C000831203133208033A0319080001301A2477
:1004D00080301A24B30108308A0033083E20B1006E
:1004E000FF398A110A1203197E2AB10B7B2AC03008
:1004F0001A24B30A6B2A1824B30A6B2A8312031333
:100500000330B2000800831203133008043A031DBD
:100510008F223430AF200330840099220800B401C8
:10052000B801AD01AE01A60101301A240430B000BB
:1005300008002A082B04031D9F2A0319192BB50153
:10054000B7012A080319AF2AB60003101030B7000C
:10055000B60C0318B50AB70AB719AF2AA82A2B0890
:100560000319BD2AB600FF30B7000310B60C0318FC
:10057000B50AB70AB719BD2AB62AB50B0800B701E4
:100580002B08031DB715B71D2A08B600B60C0318B3
:10059000B50A3518CD2AB70AC62A34080F393706E6
:1005A000031DD92A0319D42A3818D92AB8180800E3
:1005B000D92A381C080002308A0034080F39820713
:1005C000F02AF22AF42AF62AF72AF92AFB2AFD2A27
:1005D000FE2A002B022B042B052B072B092B0B2BA0
:1005E0002A300D2B30300D2B23300D2B512A373074
:1005F0000D2B38300D2B39300D2B122B34300D2BA9
:1006000035300D2B36300D2B122B31300D2B323077
:100610000D2B33300D2B00300D2BB600692436081E
:100620002F10FD20B6080319202B36080F39B4000F
:1006300008005330AF2063008312031338140800FE
:10064000831203133008053A031D8F222823080064
:100650002A082B04031D2E2B0319192BB5012A0878
:1006600003193D2BB60003101030B700B60C031869
:10067000B50AB70AB7193D2B362B2B0803194A2B9D
:10068000B600BF30B700B60C0318B50AB70AB719E1
:100690004A2B432BB50B0800B7012B080319B715DC
:1006A000B71D2A08B600B60C0318B50A35185A2B20
:1006B000B70A532B34080F393706031D662B03196D
:1006C000612B38180800B8180800662B381C080081
:1006D00003308A0034080F3982077D2B7F2B812B52
:1006E000832B842B862B882B8A2B8B2B8D2B8F2B6C
:1006F000912B922B942B962B982B2A309A2B3030BF
:100700009A2B23309A2B832A37309A2B38309A2B06
:1007100039309A2BA22B34309A2B35309A2B363025
:100720009A2BA22B31309A2B32309A2B33309A2BC2
:100730002230A22BB6006924831726300F3E840096
:10074000360880003608223A0319AA2B36080F39DA
:10075000B4000800831203133008063A031DB101E8
:100760000630B000311CBA23B11CAA21311D512A18
:1007700063000800831203133208043A03190800C7
:1007800001301A2485301A24B30108308A00330856
:100790005D20FF398A110A120319D12B1824B30ADC
:1007A000C52B831203130430B200073083120313E6
:1007B000B9007530BA00A4208312031331143F30FE
:1007C000A5000000A50BE12B08008316F03088057A
:1007D0000813881208128312081388120812F030C6
:1007E00088050330880414302E24081608120530BA
:1007F0002E240816081201302E240816081205307F
:100800002E24F030880502308804081608120530BE
:100810002E2420301A2405302E2408301A240C30BF
:100820001A2406301A2401301A2464302E240800B9
:1008300008171C2C08131C2C8812A400F030880503
:10084000240E0F39880408160812F0308805240891
:100850000F3988040816081238240800A400FF3055
:10086000A50000000000A50B312CA40B2F2C0800C4
:10087000C830A4005C24081388160816081208085B
:1008800008160812083903194A2CA40B3D2CA401A0
:1008900062240134622400345C240813881608168C
:1008A000081208080739A400A40E08160812080840
:1008B0000F3924046224080083160F3008048800CE
:1008C000831208008316F03008058800831224087C
:1008D000080083120313A500803026041A2425087B
:1008E0001824260A203A0319A616260A503AFF3081
:0808F0000319A600A60A080086
:1010000082077E347D347B347734BE34BD34BB34C8
:10101000B734DE34DD34DB34D734EE34ED34EB3446
:10102000E7348207013402340434083410342034A5
:1010300040348034820750344F345734453452346E
:1010400020344F344E3420345234453453344534F4
:101050005434003482075334543441344E344434CD
:10106000423459340034820755344E344C344F34B2
:1010700043344B34453444342134003482074534FE
:1010800073346334723469346234693472342034B2
:101090006D3465346E34733461346A3465340134CC
:1010A0004C3465346534723420346D3465346E34B8
:1010B000733461346A3465340034820745346E34E5
:1010C0007634693461346E3464346F3400348200B1
:1010D0002034453430342034563430340D34003428
:1010E0002634463430340D3400342B3443344D34FC
:0A10F000473453343D3422340034F9
:00000001FF
