:020000040000FA
:0A00060023298B13A0000308A100BA
:1000100083010408A2000A08A3008A018301851055
:100020008A018C1AE828391BB3288C182C280B1845
:100030006A20831203132A082B04031D05100319D9
:10004000051485148312031323088A0022088400F0
:100050002108830020080900A70139208C10121103
:10006000831603138C108312031386010B108B1558
:100070000E2808308A0027080F3900208A110A123A
:100080006120A9002708AC00291C2C164D20A70AC6
:1000900027080F39031D392808002A30AC19013E02
:1000A000840008308A002C0807391120A8008A1122
:1000B0000A122C1E5E2828098005080028088004E2
:1000C0000800A8008600A80906092805F039031DC4
:1000D00001340034831603138C14FF309200831212
:1000E00003138C10920091018C108B110B100800DF
:1000F000860183160317890183160313F0309500D8
:10010000831603138600811383160313FF309600B2
:1001100083120313AA01AB018B150B17080083167A
:1001200003170830870083160313083099009A01DB
:10013000243098008C160C12831203139030980010
:10014000B901BA01BB010800391741309900543098
:100150009900831603130C168312031308009900E9
:1001600008001A0808000C1E15283918C228B918EA
:10017000D1283919DE28BB01BA01391383160313BC
:100180000C120E2808308A003A086620FF3903193D
:100190003910BA0A8A110A123918AF20391CBA016B
:1001A0000E283A08103E8317840000080319B9107E
:1001B000BA0AB918AF20B91CBA010E283A0816219C
:1001C00003193911BA0A3919AF20391DBA010E289D
:1001D0003B081F3E84008317B12080000D300006CD
:1001E0000319B917BB0A0E28831603130C128312C6
:1001F0000313AD01AE01AF010800831203178C0099
:10020000831203132F1C2E08831203172F1C8D003B
:10021000831603178C130C158B138B1B0C2955306D
:100220008D00AA308D008C140C1109008312031765
:100230008D00831603178C130C14831203170C08FC
:100240008312031308008B138A110A1278208A1173
:100250000A126A218A110A12EB238A110A128F20CC
:100260008A110A12B001B101B201B3018B1701303A
:100270008A003008003A0319782101308A0083018E
:100280003008013A0319B72102308A00830130088F
:10029000023A0319102202308A0083013008033A1F
:1002A0000319552202308A0083013008043A0319E9
:1002B000892203308A0083013008053A0319262376
:1002C00003308A0083013008063A0319B0238A11EB
:1002D0000A123729831603178801831603130510A2
:1002E00085100511831203130514851405150800E4
:1002F000003083120313B000311C88290511B11C92
:10030000AA29311DB7292B082A04031D3110080022
:10031000BB01B901391439176730BA00A42083161C
:1003200003130C168312031331140130202481307F
:100330002024B30108308A0033081A20FF398A11BB
:100340000A120319A6291E24B30A9A290530B200FD
:10035000B1100800B91F08001F308400831700087F
:10036000303A0319B114B11C3110BB0108008312DB
:1003700003133008013A031DB1010130B000C2215E
:10038000DE210800831203133208013A0319080022
:100390000130202485302024B30108308A0033083E
:1003A0002A20FF398A110A120319D9291E24B30AF7
:1003B000CD29831203130130B20008008312031306
:1003C0002B08031DB1012A08DE39031DB101311CC0
:1003D000F129B11CF929311D012AB11D092A311E4B
:1003E000102A2A1831142A1C3110AA1A3110B110FF
:1003F00008002A1C3110AA1AB114AA1EB11031111A
:1004000008002A1831112A1C3115AA1EB110B11189
:1004100008002A183111AA1AB111AA1EB115080034
:10042000831203133008023A031DB1013230AF20AA
:100430000230B0001F223B22B118552A0800831257
:1004400003133208023A03190800013020248530D2
:100450002024B30108308A0033083320FF398A1181
:100460000A120319362A1E24B30A2A2A83120313F6
:100470000230B2000800311C3F2AB11C472A2A086A
:100480002B0403193114B1106730AF200800AA08FB
:10049000031D31102B08FE39031D3110AB1B311524
:1004A000311DB1144730AF20080083120313300808
:1004B000033A031DB1013330AF200330B000642292
:1004C0003B22B11C892A0800831203133208033A25
:1004D000031908000130202480302024B3010830A3
:1004E0008A0033083E20B100FF398A110A1203192D
:1004F000812AB10B7E2A8622B30A6F2A1E24B30AF0
:100500006F2A831203130330B2000800C030202486
:100510000800831203133008043A031D9522343077
:10052000AF20033084009F220800B401B801AD0160
:10053000AE01A601013020240430B00008002A08D2
:100540002B04031DA52A03191F2BB501B7012A0887
:100550000319B52AB60003101030B700B60C031803
:10056000B50AB70AB719B52AAE2A2B080319C32A48
:10057000B600FF30B7000310B60C0318B50AB70A6F
:10058000B719C32ABC2AB50B0800B7012B08031DF5
:10059000B715B71D2A08B600B60C0318B50A3518EA
:1005A000D32AB70ACC2A34080F393706031DDF2AAD
:1005B0000319DA2A3818DF2AB8180800DF2A381C8D
:1005C000080002308A0034080F398207F62AF82A18
:1005D000FA2AFC2AFD2AFF2A012B032B042B062BC7
:1005E000082B0A2B0B2B0D2B0F2B112B2A30132B27
:1005F0003030132B2330132B552A3730132B383040
:10060000132B3930132B182B3430132B3530132B7D
:100610003630132B182B3130132B3230132B333051
:10062000132B0030132BB6006F2436082F10FD203B
:10063000B6080319262B36080F39B40008005330CA
:10064000AF206300831203133814080083120313CE
:100650003008053A031D95222E2308002A082B0492
:10066000031D342B03191F2BB5012A080319432B33
:10067000B60003101030B700B60C0318B50AB70A5D
:10068000B719432B3C2B2B080319502BB600BF3056
:10069000B700B60C0318B50AB70AB719502B492B87
:1006A000B50B0800B7012B080319B715B71D2A08A9
:1006B000B600B60C0318B50A3518602BB70A592BCB
:1006C00034080F393706031D6C2B0319672B3818B4
:1006D0000800B81808006C2B381C080003308A008A
:1006E00034080F398207832B852B872B892B8A2B84
:1006F0008C2B8E2B902B912B932B952B972B982B10
:100700009A2B9C2B9E2B2A30A02B3030A02B2330F1
:10071000A02B892A3730A02B3830A02B3930A02BC2
:10072000A82B3430A02B3530A02B3630A02BA82B93
:100730003130A02B3230A02B3330A02B2230A82B0D
:10074000B6006F24831726300F3E840036088000E1
:100750003608223A0319B02B36080F39B4000800C6
:10076000831203133008063A031DB1010630B000AE
:10077000311CC023B11CAA21311D552A6300080079
:10078000831203133208043A0319080001302024AD
:1007900085302024B30108308A0033085C20FF39FB
:1007A0008A110A120319D72B1E24B30ACB2B8312EA
:1007B00003130430B200073083120313B9007430FE
:1007C000BA00A4208312031331143F30A5000000A7
:1007D000A50BE72B08008316F03088050813881254
:1007E00008128312081388120812F03088050330AB
:1007F00088041430342408160812053034240816EE
:100800000812013034240816081205303424F03060
:100810008805023088040816081205303424203078
:10082000202405303424083020240C3020240630C5
:100830002024013020246430342408000817222C9E
:100840000813222C8812A400F0308805240E0F39DA
:10085000880408160812F030880524080F39880427
:10086000081608123E240800A400FF30A50000006E
:100870000000A50B372CA40B352C0800C830A400B1
:1008800062240813881608160812080808160812A9
:1008900008390319502CA40B432CA40168240134FB
:1008A0006824003462240813881608160812080801
:1008B0000739A400A40E0816081208080F392404EA
:1008C0006824080083160F3008048800831208008B
:1008D0008316F0300805880083122408080083126C
:1008E0000313A50080302604202425081E24260A90
:1008F000203A0319A616260A503AFF300319A6001B
:04090000A60A08003B
:1010000082077E347D347B347734BE34BD34BB34C8
:10101000B734DE34DD34DB34D734EE34ED34EB3446
:10102000E7348207013402340434083410342034A5
:1010300040348034820750344F345734453452346E
:1010400020344F344E3420345234453453344534F4
:101050005434003482075334543441344E344434CD
:10106000423459340034820755344E344C344F34B2
:1010700043344B34453444342134003482074534FE
:1010800073346334723469346234693472342034B2
:101090006D3465346E34733461346A3465340134CC
:1010A0004C3465346534723420346D3465346E34B8
:1010B000733461346A346534820745346E3476346F
:1010C000693461346E3464346F3400348200203407
:1010D000453430342034563430340D340034263422
:1010E000463430340D3400342B3443344D344734DB
:0810F00053343D342234003476
:00000001FF
