:020000040000FA
:0A0006009D298B13A0000308A10040
:1000100083010408A2000A08A3008A0183160313BF
:100020000C1A182983018A018C1A62298C182C2831
:100030000B184F28831203132A082B07031D0510E2
:10004000031905148312031323088A00220884006D
:1000500021088300200809008030A7002C082A0608
:10006000031D77208430A7002C082A06031D772063
:100070008830A7002D082B06031D77208C30A700A1
:100080002D082B06031D77208C10121183160313E5
:100090008C108312031386010B108B151228A701F5
:1000A0008601861F77200430A7008601061F77206F
:1000B0000830A7008601861E77200C30A700860135
:1000C000061E77202C082A06A8002D082B062804D7
:1000D000031DBA208312031386012C082A06A800E8
:1000E0002D082B062804031D8B110B101228083035
:1000F0008A0027080F3900208A110A12B120A900AE
:10010000AE0127081038291C2038A71B2038AE0064
:100110009820A71B8C2891282708291C2038AE007E
:1001200098208601A70A27080339031908007728B1
:100130002A302E1A023EAE19013E840008308A0091
:100140002E08073911208A01A80000082805031D80
:10015000AD282808AE1E800408002808AE1A8006C4
:100160000800A8008600A80906092805F039031D23
:1001700001340034831603138C140130920083126F
:1001800003138C109201121591018C1CC5281211B9
:100190008C1083160313FF30920083120313920016
:1001A00008008312031300308600831603178901A9
:1001B00083160313F030950083160313F030860086
:1001C000811383160313FF30960083120313AC01CF
:1001D000AD01AA01AB018B150B170800831603179D
:1001E0000830870083160313083099009A012430E1
:1001F00098008C160C128312031390309800BA01E9
:10020000BB01BC010800831203133A1783120313C6
:100210004130990054309900831603130C160800DE
:100220008312031399000800831203131A080800AD
:10023000831603130C1E1228981C12288312031312
:100240003A183029BA183D293A194C29BC01BB018A
:10025000831603130C12122810218A110A12122875
:1002600008308A003B085620BB0AFF3903193A10B0
:100270008A110A12031918292C293B08103E8317EA
:1002800084000008BB0AFF39031947212C29831277
:100290000313BA10BB010A30831203133B08831205
:1002A00003178D008A110A128D21BB0AFF398A11AA
:1002B0000A1203195C212C2983120313BB013A1182
:1002C0001A300800BA173C081F3E84008317142117
:1002D0008000BC0A1228831603130C128312031326
:1002E000AF01B001F0010800831203178C008312E4
:1002F0000313701C300883120317701C8D008316C3
:1003000003178C130C158B138B1B832955308D0011
:10031000AA308D008C140C11090083120313701C79
:100320002F0883120317701C8D00831603178C137C
:100330000C14831203170C0808008B138A110A127D
:10034000D1208A110A12E4218A110A123F248A114B
:100350000A12EE208A110A12B101B201B301B401EE
:100360008B1701308A003108003A0319EE21023060
:100370008A0083013108013A03191B2202308A00E6
:1003800083013108023A0319762202308A00830180
:100390003108033A0319B32202308A00830131087D
:1003A000043A0319E52203308A0083013108053A33
:1003B00003197A2304308A0083013108063A0319AD
:1003C00004248A110A12B12983160317880183169F
:1003D0000313051083120313051408000030831261
:1003E0000313B100321CF929B21C082A321D1B2A42
:1003F0000800BC01BA013A145730BB000321831234
:10040000031332143F30A5000000A50B042A080096
:100410003C08031908001F3084008317CF30742470
:100420000008722400080D3A031932100008303A0F
:10043000031DB2140800831203133108013A031D8F
:10044000B2010130B10029224522321E762A630012
:100450000800831203133308013A0319080001301E
:10046000742485307424B40108308A0034081A20BA
:10047000FF398A110A120319402A7224B40A342A55
:10048000831203130130B3000800831203132B08F7
:10049000031DB2012A08FA39031DB201321C562A83
:1004A000B21C5E2A321D662AB21D6E2A2A18321428
:1004B0002A1C32102A193210B21008002A1C3210DD
:1004C0002A19B2142A1DB210321108002A1832114A
:1004D0002A1C32152A1DB210B21108002A18321136
:1004E0002A1DB2112A19B215321208008312031301
:1004F0003108023A031DB2010230B10083229F226B
:10050000B218B32A0800831203133308023A0319FE
:1005100008000130742485307424B40108308A0046
:1005200034082320FF398A110A1203199A2A7224E7
:10053000B40A8E2A831203130230B3000800321C5F
:10054000A32AB21CA92A2A082B0403193214B210B8
:100550000800AA08031932102B08FE3903193210BB
:10056000AB1BB2140800831203133108033A031DB6
:10057000B2010330B100C0229F22B21CE52A08005C
:10058000831203133308033A03190800013074245B
:1005900080307424B40108308A0034082E20B20060
:1005A000FF398A110A120319DD2AB20BDA2AE22274
:1005B000B40ACB2A7224B40ACB2A83120313033061
:1005C000B3000800C03074240800831203133108FC
:1005D000043A031DEF2203308400F7220800B5011E
:1005E000B901AF01B001A6010130742408002A0846
:1005F0002B04031DFD2A0319752BB6012A080319C4
:100600000C2BB70003101030B800B70C0318B60A53
:10061000B80AB8190C2B052B2B0803190C2BB700A3
:10062000BF30B800B70C0318B60AB80AB819192BAE
:10063000122BB60B0800B8012B080319B815B81D0A
:100640002A08B700B70C0318B60A3618292BB80ABF
:10065000222B35080F393806031D352B0319302B93
:100660003918352BB9180800352B391C0800033010
:100670008A0035080F3982074C2B4E2B502B522BFA
:10068000532B552B572B592B5A2B5C2B5E2B602B46
:10069000612B632B652B672B2A30692B3030692B3C
:1006A0002330692BB32A3730692B3830692B393026
:1006B000692B6E2B3430692B3530692B3630692B22
:1006C0006E2B3130692B3230692B3330692B00307F
:1006D000692BB700C324370870107421B7080319B9
:1006E0007A2B37080F39B500080063008312031313
:1006F00039140800831203133108053A031DEF2251
:10070000822308002A082B04031D882B0319752B4C
:10071000B6012A080319972BB70003101030B80050
:10072000B70C0318B60AB80AB819972B902B2B08E8
:100730000319972BB700BF30B800B70C0318B60ADF
:10074000B80AB819A42B9D2BB60B0800B8012B08CA
:100750000319B815B81D2A08B700B70C0318B60A54
:100760003618B42BB80AAD2B35080F393806031DDF
:10077000C02B0319BB2B39180800B9180800C02B6F
:10078000391C080003308A0035080F398207D72B3F
:10079000D92BDB2BDD2BDE2BE02BE22BE42BE52B07
:1007A000E72BE92BEB2BEC2BEE2BF02BF22B2A304B
:1007B000F42B3030F42B2330F42BE52A3730F42B94
:1007C0003830F42B3930F42BFC2B3430F42B35300B
:1007D000F42B3630F42BFC2B3130F42B3230F42B4D
:1007E0003330F42B2230F42BB700C3248317263088
:1007F0000F3E8400370880003708223A0319042C82
:1008000037080F39B5000800831203133108063A80
:10081000031DB2010630B100321C1424B21C3F2467
:10082000321EB32A63000800831203133308043A0C
:10083000031908000130742485307424B401083091
:100840008A0034084C20FF398A110A1203192B2C14
:100850007224B40A1F2C831203130430B300073030
:1008600083120313BA006430BB0003218312031305
:1008700032143F30A5000000A50B3B2C0800831666
:10088000F0308805081388120812831208138812A2
:100890000812F030880503308804143088240816C4
:1008A000081205308824081608120130882408161A
:1008B000081205308824F0308805023088040816B4
:1008C000081205308824203074240530882408302C
:1008D00074240C3074240630742401307424643081
:1008E000882408000817762C0813762C8812A40098
:1008F000F0308805240E0F39880408160812F030ED
:10090000880524080F398804081608129224080064
:10091000A400FF30A50000000000A50B8B2CA40B49
:10092000892C0800C830A400B624081388160816BD
:10093000081208080816081208390319A42CA40B79
:10094000972CA401BC240134BC240034B624081321
:1009500088160816081208080739A400A40E0816FD
:10096000081208080F392404BC24080083160F302D
:1009700008048800831208008316F03008058800F8
:1009800083122408080083120313A5008030260474
:10099000742425087224260A203A0319A616260A6A
:0C09A000503AFF300319A600A60A080018
:1010000082077E347D347B347734BE34BD34BB34C8
:10101000B734DE34DD34DB34D734EE34ED34EB3446
:10102000E7348207013402340434083410342034A5
:101030004034803482075334543441344E34443481
:10104000423459340034820755344E344C344F34D2
:1010500043344B344534443421340034820745341E
:1010600073346334723469346234693472342034D2
:101070006D3465346E34733461346A3465340134EC
:101080004C3465346534723420346D3465346E34D8
:10109000733461346A346534820745346E3476348F
:1010A000693461346E3464346F3400348200203427
:1010B000453430342034563430340D340034263442
:1010C000463430340D3400342B3443344D344734FB
:0810D00053343D342234003496
:00000001FF
