:020000040000FA
:0A00060023298B13A0000308A100BA
:1000100083010408A2000A08A3008A018301851055
:100020008A018C1AE828391BB3288C182C280B1845
:100030006A20831203132A082B04031D05100319D9
:10004000051485148312031323088A0022088400F0
:100050002108830020080900A70139208C10121103
:10006000831603138C108312031386010B108B1558
:100070000E2808308A0027080F3900208A110A123A
:100080006120A9002708AC00291C2C164D20A70AC6
:1000900027080F39031D392808002A30AC19013E02
:1000A000840008308A002C0807391120A8008A1122
:1000B0000A122C1E5E2828098005080028088004E2
:1000C0000800A8008600A80906092805F039031DC4
:1000D00001340034831603138C14FF309200831212
:1000E00003138C10920091018C108B110B100800DF
:1000F000860183160317890183160313F0309500D8
:10010000831603138600811383160313FF309600B2
:1001100083120313AA01AB018B150B17080083167A
:1001200003170830870083160313083099009A01DB
:10013000243098008C160C12831203139030980010
:10014000B901BA01BB010800391741309900543098
:100150009900831603130C168312031308009900E9
:1001600008001A0808000C1E15283918C228B918EA
:10017000D1283919DE28BB01BA01391383160313BC
:100180000C120E2808308A003A087820FF3903192B
:100190003910BA0A8A110A123918AF20391CBA016B
:1001A0000E283A08103E8317840000080319B9107E
:1001B000BA0AB918AF20B91CBA010E283A0816219C
:1001C00003193911BA0A3919AF20391DBA010E289D
:1001D0003B081F3E84008317B12080000D300006CD
:1001E0000319B917BB0A0E28831603130C128312C6
:1001F0000313AD01AE01AF010800831203178C0099
:10020000831203132F1C2E08831203172F1C8D003B
:10021000831603178C130C158B138B1B0C2955306D
:100220008D00AA308D008C140C1109008312031765
:100230008D00831603178C130C14831203170C08FC
:100240008312031308008B138A110A1278208A1173
:100250000A126A218A110A12E3238A110A128F20D4
:100260008A110A12B001B101B201B3018B1701303A
:100270008A003008003A0319782101308A0083018E
:100280003008013A0319B72102308A00830130088F
:10029000023A0319102202308A0083013008033A1F
:1002A0000319512202308A0083013008043A0319ED
:1002B000812203308A0083013008053A03191E2386
:1002C00003308A0083013008063A0319A8238A11F3
:1002D0000A123729831603178801831603130510A2
:1002E00085100511831203130514851405150800E4
:1002F000003083120313B000311C88290511B11C92
:10030000AA29311DB7292B082A04031D3110080022
:10031000BB01B901391439177930BA00A42083160A
:1003200003130C1683120313311401301824813087
:100330001824B30108308A0033081A20FF398A11C3
:100340000A120319A6291624B30A9A290530B20005
:10035000B1100800B91F08001F308400831700087F
:10036000303A0319B114B11C3110BB0108008312DB
:1003700003133008013A031DB1010130B000C2215E
:10038000DE290800831203133208013A031908001A
:100390000130182485301824B30108308A0033084E
:1003A0002A20FF398A110A120319D9291624B30AFF
:1003B000CD29831203130130B20008008312031306
:1003C0002B08031DB1012A08FA39031DB101311CA4
:1003D000F129B11CF929311D012AB11D092A311E4B
:1003E000102A2A1831142A1C31102A193110B11080
:1003F00008002A1C31102A19B1142A1DB11031111C
:1004000008002A1831112A1C31152A1DB110B1110A
:1004100008002A1831112A19B1112A1DB115080036
:10042000831203133008023A031DB1010230B000F9
:100430001D2239223119512A080083120313320870
:10044000023A031908000130182485301824B3013A
:1004500008308A0033083320FF398A110A12031941
:10046000342A1624B30A282A831203130230B20056
:100470000800311C3D2AB11C442A2A082B04031908
:100480003114B110AF200800AA08031D31102B0849
:100490007F39031D3110AB1B3115311DB114AF2055
:1004A0000800831203133008033A031DB10103301F
:1004B000B0005E2239223119812A08008312031309
:1004C0003208033A03190800013018248030182438
:1004D000B30108308A0033083E20B100FF398A1189
:1004E0000A1203197C2AB10B792AC0301824B30AE6
:1004F000692A1624B30A692A831203130330B2004F
:100500000800831203133008043A031D8D2234308F
:10051000AF200330840097220800B401B801AD0178
:10052000AE01A601013018240430B00008002A08EA
:100530002B04031D9D2A0319172BB501B7012A08A7
:100540000319AD2AB60003101030B700B60C03181B
:10055000B50AB70AB719AD2AA62A2B080319BB2A70
:10056000B600FF30B7000310B60C0318B50AB70A7F
:10057000B719BB2AB42AB50B0800B7012B08031D15
:10058000B715B71D2A08B600B60C0318B50A3518FA
:10059000CB2AB70AC42A34080F393706031DD72AD5
:1005A0000319D22A3818D72AB8180800D72A381CB5
:1005B000080002308A0034080F398207EE2AF02A38
:1005C000F22AF42AF52AF72AF92AFB2AFC2AFE2A1B
:1005D000002B022B032B052B072B092B2A300B2B6F
:1005E00030300B2B23300B2B512A37300B2B38306C
:1005F0000B2B39300B2B102B34300B2B35300B2BB6
:1006000036300B2B102B31300B2B32300B2B333081
:100610000B2B00300B2BB600672436082F10FD2063
:10062000B60803191E2B36080F39B40008005330E2
:10063000AF206300831203133814080083120313DE
:100640003008053A031D8D22262308002A082B04B2
:10065000031D2C2B0319172BB5012A0803193B2B5B
:10066000B60003101030B700B60C0318B50AB70A6D
:10067000B7193B2B342B2B080319482BB600BF307E
:10068000B700B60C0318B50AB70AB719482B412BA7
:10069000B50B0800B7012B080319B715B71D2A08B9
:1006A000B600B60C0318B50A3518582BB70A512BEB
:1006B00034080F393706031D642B03195F2B3818D4
:1006C0000800B8180800642B381C080003308A00A2
:1006D00034080F3982077B2B7D2B7F2B812B822BBC
:1006E000842B862B882B892B8B2B8D2B8F2B902B60
:1006F000922B942B962B2A30982B3030982B23302A
:10070000982B812A3730982B3830982B3930982BFA
:10071000A02B3430982B3530982B3630982BA02BCB
:100720003130982B3230982B3330982B2230A02B3D
:10073000B6006724831726300F3E840036088000F9
:100740003608223A0319A82B36080F39B4000800DE
:10075000831203133008063A031DB1010630B000BE
:10076000311CB823B11CAA21311D512A6300080095
:10077000831203133208043A0319080001301824C5
:1007800085301824B30108308A0033085D20FF3912
:100790008A110A120319CF2B1624B30AC32B831212
:1007A00003130430B200073083120313B9008630FC
:1007B000BA00A4208312031331143F30A5000000B7
:1007C000A50BDF2B08008316F0308805081388126C
:1007D00008128312081388120812F03088050330BB
:1007E000880414302C240816081205302C2408160E
:1007F000081201302C240816081205302C24F03081
:100800008805023088040816081205302C24203090
:10081000182405302C24083018240C3018240630F5
:1008200018240130182464302C24080008171A2CCE
:1008300008131A2C8812A400F0308805240E0F39F2
:10084000880408160812F030880524080F39880437
:100850000816081236240800A400FF30A500000086
:100860000000A50B2F2CA40B2D2C0800C830A400D1
:100870005A240813881608160812080808160812C1
:1008800008390319482CA40B3B2CA4016024013423
:10089000602400345A240813881608160812080821
:1008A0000739A400A40E0816081208080F392404FA
:1008B0006024080083160F300804880083120800A3
:1008C0008316F0300805880083122408080083127C
:1008D0000313A50080302604182425081624260AB0
:1008E000203A0319A616260A503AFF300319A6002B
:0408F000A60A08004C
:1010000082077E347D347B347734BE34BD34BB34C8
:10101000B734DE34DD34DB34D734EE34ED34EB3446
:10102000E7348207013402340434083410342034A5
:1010300040348034820750344F345734453452346E
:1010400020344F344E3420345234453453344534F4
:101050005434003482075334543441344E344434CD
:10106000423459340034820755344E344C344F34B2
:1010700043344B34453444342134003482074534FE
:1010800073346334723469346234693472342034B2
:101090006D3465346E34733461346A3465340134CC
:1010A0004C3465346534723420346D3465346E34B8
:1010B000733461346A3465340034820745346E34E5
:1010C0007634693461346E3464346F3400348207AA
:1010D0002A3430342334203437343834393420340B
:1010E00034343534363420343134323433342034EB
:1010F00082002034453430342034563430340D34BA
:1011000000342634463430340D3400342B34433428
:0C1110004D34473453343D342234003455
:00000001FF
