:020000040000FA
:0A000600F1288B13A0000308A100ED
:1000100083010408A2000A08A3008A0103018301E6
:100020008A018C1827280B184A28831203133308D7
:100030003407031D05100319051483120313230845
:100040008A002208840021088300200809008030EB
:10005000B00035083306031D72208430B000350827
:100060003306031D72208830B00036083406031DA5
:1000700072208C30B00036083406031D72208C10BC
:100080001211831603138C108312031386010B10B5
:100090008B150F28B0018601861F72200430B00036
:1000A0008601061F72200830B0008601861E72206D
:1000B0000C30B0008601061E722035083306B100F0
:1000C000360834063104031DB5208312031386015C
:1000D00035083306B100360834063104031D8B1190
:1000E0000B100F2808308A0030080F3900208A11C1
:1000F0000A12AC20B200B70130081038321C203888
:10010000B01B2038B7009320B01B87288C283008FC
:10011000321C2038B70093208601B00A300803391A
:100120000319080072283330371A023EB719013E0E
:10013000840008308A003708073911208A01B1008D
:1001400000083105031DA8283108B71E80040800E7
:100150003108B71A80060800B1008600B109060907
:100160003105F039031D01340034831603138C1458
:1001700001309200831203138C1092011215910129
:100180008C1CC02812118C1083160313FF309200B0
:1001900083120313920008008312031300308600B9
:1001A00083160317890183160313F0309500831615
:1001B0000313F0308600811383160313FF3096007B
:1001C00083120313B501B601B301B4018B150B17EC
:1001D000080083160313243098005F3099009A01B9
:1001E00008008B138A110A12CC208A110A123F21AF
:1001F0008A110A1252218A110A12E920A4018B17CE
:1002000001308A002408253A0319492101308A0067
:1002100083012408263A03194A2101308A00830108
:100220002408273A03194B2101308A00830124084E
:10023000293A03194D2101308A0083012408283A04
:1002400003194C2101308A00830124082A3A03193A
:100250004E2101308A00830124082B3A03194F21D3
:1002600001308A00830124082C3A031951210130FE
:100270008A00830124082D3A03195021002983168E
:100280000317880183160313051083120313051443
:10029000080008000800080008000800080008001E
:1002A000080008008316F030880508138812081229
:1002B0008312081388120812F0308805033088046E
:1002C00014309B210816081205309B2108160812CD
:1002D00001309B210816081205309B21F03088055B
:1002E000023088040816081205309B21203087212F
:1002F00005309B21083087210C308721063087216B
:100300000130872164309B210800081789290813D0
:1003100089298812AE00F03088052E0E0F39880426
:1003200008160812F03088052E080F3988040816C0
:100330000812A5210800AE00FF30AF000000000049
:10034000AF0B9E29AE0B9C290800C830AE00C92116
:100350000813881608160812080808160812083923
:100360000319B729AE0BAA29AE01CF210134CF2141
:100370000034C9210813881608160812080807391E
:10038000AE00AE0E0816081208080F392E04CF2151
:10039000080083160F3008048800831208008316B3
:0C03A000F0300805880083122E080800C9
:1010000082077E347D347B347734BE34BD34BB34C8
:10101000B734DE34DD34DB34D734EE34ED34EB3446
:10102000E7348207013402340434083410342034A5
:041030004034803494
:00000001FF
