:020000040000FA
:0A00060044298B13A0000308A10099
:1000100083010408A2000A08A3008A018510830155
:100020008A01391BB8288C1AEF288C1830280B1835
:100030006E20831203132A082B04031D05100319D5
:1000400005140D1E05150D1A0511851483120313D1
:1000500023088A0022088400210883002008090060
:10006000A7013D208C101211831603138C108312EC
:10007000031386010B108B150F2808308A00270800
:100080000F3900208A110A126520A9002708AC0048
:10009000291C2C165120A70A27080F39031D3D28BB
:1000A00008002A30AC19013E840008308A002C0870
:1000B00007391120A8008A110A122C1E622828096B
:1000C00080050800280880040800A8008600A80908
:1000D00006092805F039031D013400348316031383
:1000E0008C14FF309200831203138C109200910144
:1000F0008C108B110B1008008601831603178901E1
:1001000083160313F03095008316031386008113C2
:1001100083160313FF30960083120313AA01AB0169
:100120008B150B17080083160317083087008316FA
:100130000313083099009A01243098008C160C1291
:100140008312031390309800B901BA01BB01080073
:1001500039174130990054309900831603130C1657
:1001600083120313BB010800990008001A08080055
:100170000C1E13283918C728B918D6283919E328AE
:10018000BB01BA013913831603130C120F28083070
:100190008A003A089520FF3903193910BA0A8A11E2
:1001A0000A123918B420391CBA010F283A08103E37
:1001B0008317840000080319B910BA0AB918B420CB
:1001C000B91CBA010F282F143A082F21FF3903193F
:1001D00039113919B420BA0A391DBA010F283B0860
:1001E0001F3E84001A0883178000BB0A8C1AEF2870
:1001F0000D3A0319B917840A80010F2883160313D7
:100200000D1283120313AD01AE01AF01080083127A
:1002100003178C00831203132E08831203172F1C5D
:100220008D00831603178B138B1B13298C130C154E
:1002300055308D00AA308D008C148C181D29831226
:1002400003130D1E21290F3029240D1283160317C5
:100250000C118B17831203132F1CAE0A08002F1CDE
:100260002D08831203178D00831603178C130C14AB
:100270000C18382983120313831203170C088312F6
:1002800003132F1CAD0A08008B138A110A127C205D
:100290008A110A128B218A110A12E0238A110A128A
:1002A00093208A110A12B001B101B201B3018B1778
:1002B00001308A003008003A0319992102308A007F
:1002C00083013008013A0319002202308A008301B9
:1002D0003008023A0319592202308A00830130089B
:1002E000033A0319982202308A0083013008043A45
:1002F0000319C82203308A0083013008053A031924
:10030000462303308A0083013008063A031981230B
:100310008A110A12582983160317880183160313BA
:100320000510851005118312031305148514051596
:100330000800003083120313B000AB1B3110AB1B5D
:100340000800AA19AA21311CB929B11CD629311DCE
:10035000002A0800C03015241F30840083170008CD
:10036000031908001324040A293A03190800840A0F
:10037000AF29B90139149630BA00A82083120313AB
:1003800031140130152481301524B30108308A005E
:1003900033082B20FF398A110A120319D22913249A
:1003A000B30AC6290130B200B1100800B91F080015
:1003B0001E3083178400840A0008031DDB29840390
:1003C00000080A3A0319E529840A840300080D3A53
:1003D0000319EA2984030008303A0319B114B11C47
:1003E000F32931110800B11BFD29B5012F30292453
:1003F000B50FF629B91FB117D6293110B110080071
:10040000831203133008013A031DB1010130B0001B
:100410000B22272A0800831203133208023A031919
:1004200008000130152485301524B30108308A00F6
:1004300033083B20FF398A110A120319222A132498
:10044000B30A162A831203130230B2000800831283
:1004500003132B08031DB1012A08FA39031DB1014A
:10046000311C3A2AB11C422A311D4A2AB11D522A96
:10047000311E592A2A1831142A1C31102A19311018
:10048000B11008002A1C31102A19B1142A1DB1100C
:10049000311108002A1831112A1C31152A1DB110FA
:1004A000B11108002A1831112A19B1112A1DB115EC
:1004B0000800831203133008023A031DB101023011
:1004C000B000662282223119982A08008312031391
:1004D0003208033A0319080001301524843015242A
:1004E000B30108308A0033084420FF398A110A1208
:1004F00003197D2A1324B30A712A831203130330CC
:10050000B2000800311C862AB11C8C2A2A082B0450
:1005100003193114B1100800AA08031D31102B086B
:100520007F39031D3110AB1B3115311DB11408008B
:10053000831203133008033A031DB1010330B000E6
:10054000A52282223119C82A080083120313320817
:10055000043A031908000130152480301524B30132
:1005600008308A0033084F20B100FF398A110A127F
:100570000319C32AB10BC02AC0301524B30AB02A0C
:100580001324B30AB02A831203130430B200080004
:10059000831203133008043A031DCF22F22AB40158
:1005A000B101B801A6010130152480301524B30132
:1005B00008308A0033086E20B100FF398A110A1210
:1005C0000319EB2AB10BE82AC0301524B30AD82A44
:1005D0001324B30AD82A831203130530B20004305F
:1005E000B0000800311CF82AB11CFE2A311D182B5E
:1005F0002A082B0403193114B11008002A082B040F
:100600000319080025238A110A12B600563A031965
:10061000B114031D31100319162B360813241030A2
:1006200034078400831736088000B40A31110800AB
:10063000103034078400831722308000840A0D3084
:100640008000840A00308000462B8B13B7012A08F3
:100650000319332BB6000310B60C0318412BB70A4D
:100660000310B71D2C2B0830B7002B08B600031061
:10067000B60C0318412BB70A0310371E382B8B1703
:1006800021348B1708308A0037081A288312031385
:100690003008053A031D4E235C2B08008301B4018A
:1006A000B801B101AD01AE01A601013015248030C1
:1006B00015240530B0000800311CF82AB11C622B4B
:1006C000311D792B2A082B040319080025238A11D0
:1006D0000A12B600563A0319B114031D311003195A
:1006E000772B2F10360807212F213608642431116B
:1006F00008002F101A3007212F21FF302924003045
:100700000721831203133008063A031D9023063095
:10071000B000311C982BB11CD629311DC42B080008
:10072000B10101301524803015240630B0000800D6
:10073000831203133208063A0319B32B0130152430
:1007400084301524B30108308A0033088120FF3932
:100750008A110A120319AF2B1324B30AA32B831295
:1007600003130630B200B9013914B9143915A13098
:10077000BA00A8208312031331143F30A5000000F3
:10078000A50BBF2BB1100800831203133208073AE0
:100790000319DF2B0130152484301524B3010830F0
:1007A0008A0033088B20FF398A110A120319DB2BC8
:1007B0001324B30ACF2B831203130730B2000800AF
:1007C0008316F03088050813881208128312081364
:1007D00088120812F0308805033088041430292468
:1007E0000816081205302924081608120130292499
:1007F0000816081205302924F030880502308804D4
:10080000081608120530292428301524053029241B
:10081000083015240C301524063015240130152419
:100820006430292408000817172C0813172C881285
:10083000A400F0308805240E0F3988040816081229
:10084000F030880524080F3988040816081233246C
:100850000800A400FF30A50000000000A50B2C2C10
:10086000A40B2A2C0800C830A400572408138816AB
:100870000816081208080816081208390319452C2A
:10088000A40B382CA4015D2401345D2400345724CA
:10089000081388160816081208080739A400A40EC1
:1008A0000816081208080F3924045D24080083166E
:1008B0000F3008048800831208008316F030080502
:1008C0008800831224080800A500260A03190130B5
:1008D0000319152480302604152425081324260A1C
:1008E000103A3F300319A600260A503AFF30031988
:0608F000A600A60A0800A4
:1010000082077E347D347B347734BE34BD34BB34C8
:10101000B734DE34DD34DB34D734EE34ED34EB3446
:10102000E7348207013402340434083410342034A5
:101030004034803482072A343034233452343734F5
:101040003834393444343434353436345534313426
:10105000323433345634820750344F3457344534A5
:10106000523420344F344E342034523445345334C7
:1010700045345434003482075334543441344E34AC
:101080004434423459340034820755344E344C349D
:101090004F3443344B3445344434213400348207D4
:1010A000453473346334723469346234693472346D
:1010B00020346D3465346E34733461346A3465348D
:1010C00001344C3465346534723420346D34653405
:1010D0006E34733461346A346534003482074D34BD
:1010E0006134723463346134203465346C342034B8
:1010F0006E3475346D34653472346F343A3401347F
:101100000034820745346E347634693461346E3489
:1011100064346F340034820745346E347634693475
:10112000613464346F342134003482004534303407
:10113000563430340D3400342634463430340D34D3
:1011400000342B3443344D34473453343D3422344B
:02115000003469
:00000001FF
