:020000040000FA
:0A0006009D298B13A0000308A10040
:1000100083010408A2000A08A3008A0183160313BF
:100020000C1A182983018A018C1A62298C182C2831
:100030000B184F28831203132A082B07031D0510E2
:10004000031905148312031323088A00220884006D
:1000500021088300200809008030A7002C082A0608
:10006000031D77208430A7002C082A06031D772063
:100070008830A7002D082B06031D77208C30A700A1
:100080002D082B06031D77208C10121183160313E5
:100090008C108312031386010B108B151228A701F5
:1000A0008601861F77200430A7008601061F77206F
:1000B0000830A7008601861E77200C30A700860135
:1000C000061E77202C082A06A8002D082B062804D7
:1000D000031DBA208312031386012C082A06A800E8
:1000E0002D082B062804031D8B110B101228083035
:1000F0008A0027080F3900208A110A12B120A900AE
:10010000AE0127081038291C2038A71B2038AE0064
:100110009820A71B8C2891282708291C2038AE007E
:1001200098208601A70A27080339031908007728B1
:100130002A302E1A023EAE19013E840008308A0091
:100140002E08073911208A01A80000082805031D80
:10015000AD282808AE1E800408002808AE1A8006C4
:100160000800A8008600A80906092805F039031D23
:1001700001340034831603138C140130920083126F
:1001800003138C109201121591018C1CC5281211B9
:100190008C1083160313FF30920083120313920016
:1001A00008008312031300308600831603178901A9
:1001B00083160313F030950083160313F030860086
:1001C000811383160313FF30960083120313AC01CF
:1001D000AD01AA01AB018B150B170800831603179D
:1001E0000830870083160313083099009A012430E1
:1001F00098008C160C128312031390309800BA01E9
:10020000BB01BC010800831203133A1783120313C6
:100210004130990054309900831603130C160800DE
:100220008312031399000800831203131A080800AD
:10023000831603130C1E1228981C12288312031312
:100240003A183029BA183D293A194C29BC01BB018A
:10025000831603130C12122810218A110A12122875
:1002600008308A003B085620BB0AFF3903193A10B0
:100270008A110A12031918292C293B08103E8317EA
:1002800084000008BB0AFF39031947212C29831277
:100290000313BA10BB010A30831203133B08831205
:1002A00003178D008A110A128D21BB0AFF398A11AA
:1002B0000A1203195C212C2983120313BB013A1182
:1002C0001A300800BA173C081F3E84008317142117
:1002D0008000BC0A1228831603130C128312031326
:1002E000AF01B001F0010800831203178C008312E4
:1002F0000313701C300883120317701C8D008316C3
:1003000003178C130C158B138B1B832955308D0011
:10031000AA308D008C140C11090083120313701C79
:100320002F0883120317701C8D00831603178C137C
:100330000C14831203170C0808008B138A110A127D
:10034000D1208A110A12E5218A110A1240248A1149
:100350000A12EE208A110A12B101B201B301B401EE
:100360008B17630001308A003108003A0319EF212E
:1003700002308A0083013108013A03191C2202303D
:100380008A0083013108023A0319772202308A0079
:1003900083013108033A0319B42202308A00830131
:1003A0003108043A0319E62203308A008301310838
:1003B000053A03197B2304308A0083013108063A89
:1003C000031905248A110A12B2298316031788011A
:1003D000831603130510831203130514080000305D
:1003E00083120313B100321CFA29B21C092A321DF0
:1003F0001C2A0800BC01BA013A145730BB00032183
:100400008312031332143F30A5000000A50B052A08
:1004100008003C08031908001F3084008317CF3000
:1004200075240008732400080D3A031932100008DF
:10043000303A031DB2140800831203133108013A45
:10044000031DB2010130B1002A224622321E772A52
:1004500063000800831203133308013A03190800EC
:100460000130752485307524B40108308A003408C1
:100470001A20FF398A110A120319412A7324B40A77
:10048000352A831203130130B300080083120313CB
:100490002B08031DB2012A08FA39031DB201321CD0
:1004A000572AB21C5F2A321D672AB21D6F2A2A18EA
:1004B00032142A1C32102A193210B21008002A1CD9
:1004C00032102A19B2142A1DB210321108002A184B
:1004D00032112A1C32152A1DB210B21108002A1836
:1004E00032112A1DB2112A19B215321208008312D4
:1004F00003133108023A031DB2010230B100842215
:10050000A022B218B42A0800831203133308023A57
:10051000031908000130752485307524B4010830B2
:100520008A0034082320FF398A110A1203199B2AF2
:100530007324B40A8F2A831203130230B300080015
:10054000321CA42AB21CAA2A2A082B04031932142A
:10055000B2100800AA08031932102B08FE3903193B
:100560003210AB1BB2140800831203133108033A94
:10057000031DB2010330B100C122A022B21CE62A41
:100580000800831203133308033A031908000130EB
:10059000752480307524B40108308A0034082E2078
:1005A000B200FF398A110A120319DE2AB20BDB2AC4
:1005B000E322B40ACC2A7324B40ACC2A831203138C
:1005C0000330B3000800C030752408008312031301
:1005D0003108043A031DF02203308400F822080099
:1005E000B501B901AF01B001A601013075240800C1
:1005F0002A082B04031DFE2A0319762BB6012A08AC
:1006000003190D2BB70003101030B800B70C0318F6
:10061000B60AB80AB8190D2B062B2B0803190D2B97
:10062000B700BF30B800B70C0318B60AB80AB8193B
:100630001A2B132BB60B0800B8012B080319B81599
:10064000B81D2A08B700B70C0318B60A36182A2BAB
:10065000B80A232B35080F393806031D362B03192A
:10066000312B3918362BB9180800362B391C0800E5
:1006700003308A0035080F3982074D2B4F2B512B41
:10068000532B542B562B582B5A2B5B2B5D2B5F2B4C
:10069000612B622B642B662B682B2A306A2B30303F
:1006A0006A2B23306A2BB42A37306A2B38306A2BF6
:1006B00039306A2B6F2B34306A2B35306A2B363049
:1006C0006A2B6F2B31306A2B32306A2B33306A2B16
:1006D00000306A2BB700C424370870107421B708A3
:1006E00003197B2B37080F39B5000800630083120C
:1006F000031339140800831203133108053A031D4C
:10070000F022832308002A082B04031D892B0319D8
:10071000762BB6012A080319982BB7000310103066
:10072000B800B70C0318B60AB80AB819982B912B61
:100730002B080319982BB700BF30B800B70C03186B
:10074000B60AB80AB819A52B9E2BB60B0800B8013B
:100750002B080319B815B81D2A08B700B70C0318E1
:10076000B60A3618B52BB80AAE2B35080F3938063D
:10077000031DC12B0319BC2B39180800B918080038
:10078000C12B391C080003308A0035080F39820755
:10079000D82BDA2BDC2BDE2BDF2BE12BE32BE52B0D
:1007A000E62BE82BEA2BEC2BED2BEF2BF12BF32B8D
:1007B0002A30F52B3030F52B2330F52BE62A373055
:1007C000F52B3830F52B3930F52BFD2B3430F52B4C
:1007D0003530F52B3630F52BFD2B3130F52B323003
:1007E000F52B3330F52B2230F52BB700C4248317BB
:1007F00026300F3E8400370880003708223A03195C
:10080000052C37080F39B50008008312031331088F
:10081000063A031DB2010630B100321C1524B21C89
:100820000922321DB42A630008008312031333081F
:10083000043A031908000130752485307524B40189
:1008400008308A0034084C20FF398A110A12031933
:100850002C2C7324B40A202C831203130430B3000D
:10086000073083120313BA006430BB0003218312E4
:10087000031332143F30A5000000A50B3C2C0800E8
:100880008316F030880508138812081283120813A3
:1008900088120812F0308805033088041430892447
:1008A0000816081205308924081608120130892418
:1008B0000816081205308924F030880502308804B3
:1008C0000816081205308924203075240530892443
:1008D000083075240C3075240630752401307524D9
:1008E0006430892408000817772C0813772C8812A5
:1008F000A400F0308805240E0F3988040816081269
:10090000F030880524080F3988040816081293244B
:100910000800A400FF30A50000000000A50B8C2CEF
:10092000A40B8A2C0800C830A400B724081388162A
:100930000816081208080816081208390319A52C09
:10094000A40B982CA401BD240134BD240034B72489
:10095000081388160816081208080739A400A40E00
:100960000816081208080F392404BD24080083164D
:100970000F3008048800831208008316F030080541
:10098000880083122408080083120313A500803016
:100990002604752425087324260A203A0319A6166E
:0E09A000260A503AFF300319A600A60A0800E6
:1010000082077E347D347B347734BE34BD34BB34C8
:10101000B734DE34DD34DB34D734EE34ED34EB3446
:10102000E7348207013402340434083410342034A5
:101030004034803482075334543441344E34443481
:10104000423459340034820755344E344C344F34D2
:1010500043344B344534443421340034820745341E
:1010600073346334723469346234693472342034D2
:101070006D3465346E34733461346A3465340134EC
:101080004C3465346534723420346D3465346E34D8
:10109000733461346A346534820745346E3476348F
:1010A000693461346E3464346F3400348200203427
:1010B000453430342034563430340D340034263442
:1010C000463430340D3400342B3443344D344734FB
:0810D00053343D342234003496
:00000001FF
