:020000040000FA
:0A00060082298B13A0000308A1005B
:1000100083010408A2000A08A3008A0183018A015F
:100020008C1A47293B1B10298C182A280B184D289D
:10003000831203132A082B07031D05100319051447
:100040008312031323088A002208840021088300F6
:10005000200809008030A7002C082A06031D7520FF
:100060008430A7002C082A06031D75208830A700BD
:100070002D082B06031D75208C30A7002D082B069C
:10008000031D75208C101211831603138C1083121C
:10009000031386010B108B150E28A7018601861FFE
:1000A00075200430A7008601061F75200830A700C0
:1000B0008601861E75200C30A7008601061E75205D
:1000C0002C082A06A8002D082B062804031DB8209A
:1000D0008312031386012C082A06A8002D082B067C
:1000E0002804031D8B110B100E2808308A002708E6
:1000F0000F3900208A110A12AF20A900AE0127088B
:100100001038291C2038A71B2038AE009620A71BCA
:100110008A288F282708291C2038AE0096208601BF
:10012000A70A270803390319080075282A302E1A50
:10013000023EAE19013E840008308A002E080739BD
:1001400011208A01A80000082805031DAB282808F3
:10015000AE1E800408002808AE1A80060800A80019
:100160008600A80906092805F039031D013400346A
:10017000831603138C1401309200831203138C1026
:100180009201121591018C1CC32812118C10831638
:100190000313FF30920083120313920008008312AE
:1001A0000313003086008316031789018316031397
:1001B000F030950083160313F03086008113831608
:1001C0000313FF30960083120313AC01AD01AA01A3
:1001D000AB018B150B170800831603170830870037
:1001E00083160313083099009A01243098008C1666
:1001F0000C128312031390309800BB01BC01BD01A7
:1002000008003B17413099005430990083160313BE
:100210000C16831203130800990008001A0808003E
:10022000831203130C1E14283B1822298510BB18B7
:1002300030293B193D29BD01BC013B138316031333
:100240000C120E2808308A003C08562003193B1077
:10025000BC0A8A110A123B180C213B1CBC010E2857
:100260003C08103E8317840000080319BB10BC0A29
:10027000BB180C21BB1CBC010E283C0875210319BE
:100280003B11BC0A3B190C213B1DBC010E283D084B
:100290001F3E840083170E2180000D3000060319D5
:1002A000BB17BD0A0E28831603130C128312031307
:1002B000AF01B001B1010800831203178C00831253
:1002C0000313311C300883120317311C8D00831671
:1002D00003178C130C158B138B1B6B2955308D005A
:1002E000AA308D008C140C110900831203178D00A5
:1002F000831603178C130C14831203170C08831234
:10030000031308008B138A110A12CF208A110A12D4
:10031000C9218A110A1291248A110A12EC208A1129
:100320000A12B201B301B401B5018B1701308A0082
:100330003208003A0319D72102308A0083013208BB
:10034000013A0319092202308A0083013208023A75
:100350000319B62202308A0083013208033A0319D6
:10036000FB2203308A0083013208043A03192F2349
:1003700003308A0083013208053A0319CC23043084
:100380008A0083013208063A031956248A110A1298
:100390009629831603178801831603130510851009
:1003A0000511831203130514851405150800003088
:1003B00083120313B200331CE629B31CF829331D42
:1003C000092A2B082A04031D33100800BD01BB01B4
:1003D0003B143B175730BC000121831603130C1646
:1003E00033143F30A5000000A50BF329B31008001B
:1003F000BB1F08001F3084008317CE30C624413055
:10040000C4240008303A0319B314B31C3310BD01DF
:100410000800831203133208013A031DB3010130AF
:10042000B200142230220800831203133408013A68
:10043000031908000130C6248530C624B5010830F0
:100440008A0035081A20FF398A110A1203192B2A4B
:10045000C424B50A1F2A831203130130B400080014
:10046000831203132B08031DB30144222A08DE392B
:10047000031DB301331C972AB31C9F2A331DA72ADF
:10048000B31DAF2A331EB62AC030C6242A1C303012
:100490002A183130C424AA1C3030AA183130C424A0
:1004A0002A1D30302A193130C424AA1D3030AA192F
:1004B0003130C4242A1E30302A1A3130C424AA1EF6
:1004C0003030AA1A3130C4242A1F30302A1B313070
:1004D000C424AA1F3030AA1B3130C4242B1C303056
:1004E0002B183130C424AB1C3030AB183130C4244D
:1004F0002B1D30302B193130C424AB1D3030AB19DB
:100500003130C4242B1E30302B1A3130C424AB1EA2
:100510003030AB1A3130C4242B1F30302B1B31301C
:10052000C424AB1F3030AB1B3130C42408002A1860
:1005300033142A1C3310AA1A3310B31008002A1CD3
:100540003310AA1AB314AA1EB310331108002A18C4
:1005500033112A1C3315AA1EB310B31108002A1830
:100560003311AA1AB311AA1EB3150800831203137C
:100570003208023A031DB30132300C210230B200BE
:10058000C522E122B318FB2A0800831203133408A2
:10059000023A031908000130C6248530C624B5018B
:1005A00008308A0035082320FF398A110A120319FE
:1005B000DC2AC424B50AD02A831203130230B40003
:1005C0000800331CE52AB31CED2A2A082B04031962
:1005D0003314B31067300C210800AA08031D331030
:1005E0002B08FE39031D3310AB1B3315331DB31419
:1005F00047300C210800831203133208033A031D0D
:10060000B30133300C210330B2000A23E122B31CC2
:100610002F2B0800831203133408033A0319080030
:100620000130C6248030C624B50108308A00350860
:100630002E20B300FF398A110A120319272BB30B9E
:10064000242B2C23B50A152BC424B50A152B831291
:1006500003130330B4000800C030C624080083121E
:1006600003133208043A031D3B2334300C210330BA
:10067000840045230800B601BA01AF01B001A6010C
:100680000130C6240430B20008002A082B04031DE0
:100690004B2B0319C52BB701B9012A0803195B2B92
:1006A000B80003101030B900B80C0318B70AB90A23
:1006B000B9195B2B542B2B080319692BB800FF3099
:1006C000B9000310B80C0318B70AB90AB919692B95
:1006D000622BB70B0800B9012B08031DB915B91D12
:1006E0002A08B800B80C0318B70A3718792BB90ACA
:1006F000722B36080F393906031D852B0319802B01
:100700003A18852BBA180800852B3A1C08000330CC
:100710008A0036080F3982079C2B9E2BA02BA22B18
:10072000A32BA52BA72BA92BAA2BAC2BAE2BB02B25
:10073000B12BB32BB52BB72B2A30B92B3030B92BBB
:100740002330B92BFB2A3730B92B3830B92B39304D
:10075000B92BBE2B3430B92B3530B92B3630B92BF1
:10076000BE2B3130B92B3230B92B3330B92B00309E
:10077000B92BB8001525380831105C21B8080319C9
:10078000CC2B38080F39B600080053300C21630019
:10079000831203133A140800831203133208053A34
:1007A000031D3B23D42308002A082B04031DDA2B46
:1007B0000319C52BB7012A080319E92BB800031048
:1007C0001030B900B80C0318B70AB90AB919E92BE7
:1007D000E22B2B080319F62BB800BF30B900B80C78
:1007E0000318B70AB90AB919F62BEF2BB70B080093
:1007F000B9012B080319B915B91D2A08B800B80C9E
:100800000318B70A3718062CB90AFF2B36080F3918
:100810003906031D122C03190D2C3A180800BA18BA
:100820000800122C3A1C080004308A0036080F39E0
:100830008207292C2B2C2D2C2F2C302C322C342CB5
:10084000362C372C392C3B2C3D2C3E2C402C422C6A
:10085000442C2A30462C3030462C2330462C2F2B6B
:100860003730462C3830462C3930462C4E2C34301C
:10087000462C3530462C3630462C4E2C3130462C0A
:100880003230462C3330462C22304E2CB800152501
:10089000831726300F3E8400380880003808223A3B
:1008A0000319562C38080F39B600080083120313B9
:1008B0003208063A031DB3010630B200331C662429
:1008C000B31CF821331DFB2A6300080083120313B5
:1008D0003408043A031908000130C6248530C624C0
:1008E000B50108308A0035084C20FF398A110A12F8
:1008F00003197D2CC424B50A712C83120313043010
:10090000B400073083120313BB006430BC00012124
:100910008312031333143F30A5000000A50B8D2C68
:1009200008008316F0308805081388120812831215
:10093000081388120812F030880503308804143038
:10094000DA24081608120530DA24081608120130D5
:10095000DA24081608120530DA24F030880502304F
:100960008804081608120530DA242030C624053021
:10097000DA240830C6240C30C6240630C6240130E0
:10098000C6246430DA2408000817C82C0813C82CC1
:100990008812A400F0308805240E0F398804081648
:1009A0000812F030880524080F3988040816081248
:1009B000E4240800A400FF30A50000000000A50BFF
:1009C000DD2CA40BDB2C0800C830A400082508137C
:1009D000881608160812080808160812083903199C
:1009E000F62CA40BE92CA4010E2501340E250034AD
:1009F0000825081388160816081208080739A400E5
:100A0000A40E0816081208080F3924040E25080041
:100A100083160F3008048800831208008316F03014
:100A20000805880083122408080083120313A50018
:100A300080302604C6242508C424260A203A031937
:100A4000A616260A503AFF300319A600A60A080087
:1010000082077E347D347B347734BE34BD34BB34C8
:10101000B734DE34DD34DB34D734EE34ED34EB3446
:10102000E7348207013402340434083410342034A5
:101030004034803482075334543441344E34443481
:10104000423459340034820755344E344C344F34D2
:1010500043344B344534443421340034820745341E
:1010600073346334723469346234693472342034D2
:101070006D3465346E34733461346A3465340134EC
:101080004C3465346534723420346D3465346E34D8
:10109000733461346A346534820745346E3476348F
:1010A000693461346E3464346F3400348200203427
:1010B000453430342034563430340D340034263442
:1010C000463430340D3400342B3443344D344734FB
:0810D00053343D342234003496
:00000001FF
