:020000040000FA
:0A000600A1298B13A0000308A1003C
:1000100083010408A2000A08A3008A0183160313BF
:100020000C1A192983018A018C1A63298C182D282E
:100030000B185028831203132A082B07031D0510E1
:10004000031905145C228312031323088A00220873
:10005000840021088300200809008030A7002C08B4
:100060002A06031D78208430A7002C082A06031DC9
:1000700078208830A7002D082B06031D78208C30AF
:10008000A7002D082B06031D78208C101211831653
:1000900003138C108312031386010B108B15122887
:1000A000A7018601861F78200430A7008601061F5D
:1000B00078200830A7008601861E78200C30A70023
:1000C0008601061E78202C082A06A8002D082B067B
:1000D0002804031DBB208312031386012C082A0663
:1000E000A8002D082B062804031D8B110B101228C5
:1000F00008308A0027080F3900208A110A12B2201E
:10010000A900AE0127081038291C2038A71B203869
:10011000AE009920A71B8D2892282708291C20387B
:10012000AE0099208601A70A2708033903190800A1
:1001300078282A302E1A023EAE19013E840008307B
:100140008A002E08073911208A01A8000008280516
:10015000031DAE282808AE1E800408002808AE1A29
:1001600080060800A8008600A80906092805F039BD
:10017000031D01340034831603138C1401309200E4
:10018000831203138C109201121591018C1CC62846
:1001900012118C1083160313FF3092008312031385
:1001A00092000800831203130030860083160317A1
:1001B000890183160313F030950083160313F03082
:1001C0008600811383160313FF30960083120313F6
:1001D000AC01AD01AA01AB018B150B17080083160A
:1001E00003170830870083160313083099009A011B
:1001F000243098008C160C12831203139030980050
:10020000BA01BB01BC010800831203133A17831221
:1002100003134130990054309900831603130C16D0
:1002200008008312031399000800831203131A08AD
:100230000800831603130C1E1228981C1228831220
:1002400003133A183129BA183E293A194D29BC012D
:10025000BB01831603130C12122811218A110A12F2
:10026000122808308A003B085620BB0AFF390319C0
:100270003A108A110A12031919292D293B08103E38
:10028000831784000008BB0AFF39031948212D2970
:1002900083120313BA10BB010A30831203133B0805
:1002A000831203178D008A110A129121BB0AFF39AC
:1002B0008A110A1203195D212D2983120313BB0130
:1002C0003A111A3008003C081F3E8400831715219C
:1002D00080000D3000060319BA17BC0A12288316D5
:1002E00003130C1283120313AF01B001F0010800D5
:1002F000831203178C0083120313701C30088312BF
:100300000317701C8D00831603178C130C158B13A9
:100310008B1B872955308D00AA308D008C140C1151
:10032000090083120313701C2F0883120317701C1B
:100330008D00831603178C130C14831203170C08FB
:1003400008008B138A110A12D2208A110A12E8219E
:100350008A110A12A7248A110A12EF208A110A129E
:10036000B101B201B301B4018B1701308A00310829
:10037000003A0319F22102308A0083013108013A60
:100380000319222202308A0083013108023A03193C
:10039000CE2203308A0083013108033A0319132364
:1003A00003308A0083013108043A031947230330DC
:1003B0008A0083013108053A0319E22304308A00D8
:1003C00083013108063A03196C248A110A12B529EF
:1003D0008316031788018316031305108312031372
:1003E00005140800003083120313B100321C012AE7
:1003F000B21C112A321D222A2B082A04031D321096
:100400000800BC01BA013A145730BB000421831222
:10041000031332143F30A5000000A50B0C2AB210C4
:100420000800BA1F08001F3084008317CF30DC2477
:100430000008DA240008303A0319B214B21C321052
:10044000BC010800831203133108013A031DB201F5
:100450000130B1002D224922080083120313330812
:10046000013A031908000130DC248530DC24B40192
:1004700008308A0034081A20FF398A110A12031939
:10048000442ADA24B40A382A831203130130B30051
:100490000800831203132B08031DB2012A08DE395A
:1004A000031DB201321CAF2AB21CB72A321DBF2A6B
:1004B000B21DC72A321ECE2AC030DC242A1C30309E
:1004C0002A183130DA24AA1C3030AA183130DA2444
:1004D0002A1D30302A193130DA24AA1D3030AA19E9
:1004E0003130DA242A1E30302A1A3130DA24AA1E9A
:1004F0003030AA1A3130DA242A1F30302A1B31302A
:10050000DA24AA1F3030AA1B3130DA242B1C3030F9
:100510002B183130DA24AB1C3030AB183130DA24F0
:100520002B1D30302B193130DA24AB1D3030AB1994
:100530003130DA242B1E30302B1A3130DA24AB1E46
:100540003030AB1A3130DA242B1F30302B1B3130D6
:10055000DA24AB1F3030AB1B3130DA2408002A1804
:1005600032142A1C3210AA1A3210B21008002A1CA7
:100570003210AA1AB214AA1EB210321108002A1898
:1005800032112A1C3215AA1EB210B21108002A1804
:100590003211AA1AB211AA1EB2150800831203134F
:1005A0003108023A031DB201323011210230B1008C
:1005B000DD22F922B218132B08008312031333082B
:1005C000023A031908000130DC248530DC24B40130
:1005D00008308A0034082320FF398A110A120319CF
:1005E000F42ADA24B40AE82A831203130230B3008F
:1005F0000800321CFD2AB21C052B2A082B04031903
:100600003214B210673011210800AA08031D3210FD
:100610002B08FE39031D3210AB1B3215321DB214EC
:10062000473011210800831203133108033A031DD8
:10063000B201333011210330B1002223F922B21C60
:10064000472B0800831203133308033A03190800E9
:100650000130DC248030DC24B40108308A00340806
:100660002E20B200FF398A110A1203193F2BB20B58
:100670003C2B4423B40A2D2BDA24B40A2D2B8312ED
:1006800003130330B3000800C030DC2408008312D9
:1006900003133108043A031D53233430112103306E
:1006A00084005D230800B501B901AF01B001A601C6
:1006B0000130DC240430B10008002A082B04031D9B
:1006C000632B0319DD2BB601B8012A080319732B1C
:1006D000B70003101030B800B70C0318B60AB80AF8
:1006E000B819732B6C2B2B080319812BB700FF3023
:1006F000B8000310B70C0318B60AB80AB819812B52
:100700007A2BB60B0800B8012B08031DB815B81DCD
:100710002A08B700B70C0318B60A3618912BB80A86
:100720008A2B35080F393806031D9D2B0319982B8A
:1007300039189D2BB91808009D2B391C080003306F
:100740008A0035080F398207B42BB62BB82BBA2B89
:10075000BB2BBD2BBF2BC12BC22BC42BC62BC82B35
:10076000C92BCB2BCD2BCF2B2A30D12B3030D12BFB
:100770002330D12B132B3730D12B3830D12B3930BC
:10078000D12BD62B3430D12B3530D12B3630D12B49
:10079000D62B3130D12B3230D12B3330D12B00300E
:1007A000D12BB7002B25370870107821B708031913
:1007B000E22B37080F39B5000800630083120313DA
:1007C00039140800831203133108053A031D53231B
:1007D000EA2308002A082B04031DF02B0319DD2B44
:1007E000B6012A080319FF2BB70003101030B80018
:1007F000B70C0318B60AB80AB819FF2BF82B2B0848
:1008000003190C2CB700BF30B800B70C0318B60A98
:10081000B80AB8190C2C052CB60B0800B8012B0827
:100820000319B815B81D2A08B700B70C0318B60A83
:1008300036181C2CB80A152C35080F393806031D3C
:10084000282C0319232C39180800B9180800282C63
:10085000391C080004308A0035080F3982073F2C04
:10086000412C432C452C462C482C4A2C4C2C4D2CEE
:100870004F2C512C532C542C562C582C5A2C2A309B
:100880005C2C30305C2C23305C2C472B37305C2CBC
:1008900038305C2C39305C2C642C34305C2C353096
:1008A0005C2C36305C2C642C31305C2C32305C2C6F
:1008B00033305C2C2230642CB7002B258317263074
:1008C0000F3E8400370880003708223A03196C2C49
:1008D00037080F39B5000800831203133108063AB0
:1008E000031DB2010630B100321C7C24B21C11225F
:1008F000321D132B63000800831203133308043ADC
:10090000031908000130DC248530DC24B4010830F0
:100910008A0034084C20FF398A110A120319932CDB
:10092000DA24B40A872C831203130430B30007308F
:1009300083120313BA006430BB0004218312031333
:1009400032143F30A5000000A50BA32C080083162D
:10095000F0308805081388120812831208138812D1
:100960000812F0308805033088041430F02408168B
:1009700008120530F024081608120130F024081679
:1009800008120530F024F03088050230880408167B
:1009900008120530F0242030DC240530F024083023
:1009A000DC240C30DC240630DC240130DC24643010
:1009B000F02408000817DE2C0813DE2C8812A4008F
:1009C000F0308805240E0F39880408160812F0301C
:1009D000880524080F39880408160812FA2408002C
:1009E000A400FF30A50000000000A50BF32CA40B11
:1009F000F12C0800C830A4001E250813881608161C
:100A00000812080808160812083903190C2DA40B3F
:100A1000FF2CA40124250134242500341E250813AD
:100A200088160816081208080739A400A40E08162C
:100A3000081208080F3924042425080083160F30F3
:100A400008048800831208008316F0300805880027
:100A500083122408080083120313A50080302604A3
:100A6000DC242508DA24260A203A0319A616260AC9
:0C0A7000503AFF300319A600A60A080047
:1010000082077E347D347B347734BE34BD34BB34C8
:10101000B734DE34DD34DB34D734EE34ED34EB3446
:10102000E7348207013402340434083410342034A5
:101030004034803482075334543441344E34443481
:10104000423459340034820755344E344C344F34D2
:1010500043344B344534443421340034820745341E
:1010600073346334723469346234693472342034D2
:101070006D3465346E34733461346A3465340134EC
:101080004C3465346534723420346D3465346E34D8
:10109000733461346A346534820745346E3476348F
:1010A000693461346E3464346F3400348200203427
:1010B000453430342034563430340D340034263442
:1010C000463430340D3400342B3443344D344734FB
:0810D00053343D342234003496
:00000001FF
