:020000040000FA
:0A0006002C298B13A0000308A100B1
:1000100083010408A2000A08A3008A018301851055
:100020008A018C1AE828391BB3288C182C280B1845
:100030006A20831203132A082B04031D05100319D9
:10004000051485148312031323088A0022088400F0
:100050002108830020080900A70139208C10121103
:10006000831603138C108312031386010B108B1558
:100070000E2808308A0027080F3900208A110A123A
:100080006120A9002708AC00291C2C164D20A70AC6
:1000900027080F39031D392808002A30AC19013E02
:1000A000840008308A002C0807391120A8008A1122
:1000B0000A122C1E5E2828098005080028088004E2
:1000C0000800A8008600A80906092805F039031DC4
:1000D00001340034831603138C14FF309200831212
:1000E00003138C10920091018C108B110B100800DF
:1000F000860183160317890183160313F0309500D8
:10010000831603138600811383160313FF309600B2
:1001100083120313AA01AB018B150B17080083167A
:1001200003170830870083160313083099009A01DB
:10013000243098008C160C12831203139030980010
:10014000B901BA01BB010800391741309900543098
:100150009900831603130C168312031308009900E9
:1001600008001A0808000C1E15283918C228B918EA
:10017000D1283919DE28BB01BA01391383160313BC
:100180000C120E2808308A003A089520FF3903190E
:100190003910BA0A8A110A123918AF20391CBA016B
:1001A0000E283A08103E8317840000080319B9107E
:1001B000BA0AB918AF20B91CBA010E283A081F2193
:1001C00003193911BA0A3919AF20391DBA010E289D
:1001D0003B081F3E84008317B12080000D300006CD
:1001E0000319B917BB0A0E28831603130C128312C6
:1001F0000313AD01AE01AF010800831203178C0099
:10020000831203132E08831203172F1C8D008316ED
:1002100003178C130C158B138B1B0B2955308D007A
:10022000AA308D008C148B17831203130D1E162910
:100230000D12831603170C11831203130800831287
:1002400003178D00831603178C130C1483120317E6
:100250000C088312031308008B138A110A127820EA
:100260008A110A1273218A110A129E238A110A1214
:100270008F208A110A12B001B101B201B3018B17AC
:1002800001308A003008003A0319812101308A00C8
:1002900083013008013A0319BC2102308A0083012E
:1002A0003008023A0319152202308A00830130080F
:1002B000033A0319542202308A0083013008043AB9
:1002C0000319842203308A0083013008053A031998
:1002D000022303308A0083013008063A03193923C8
:1002E0008A110A1240298316031788018316031303
:1002F00005108510051183120313051485140515C7
:100300000800003083120313B000311C9029B11C87
:10031000AE29311DBC292B082A04031D3110080009
:10032000BB01B90139149630BA00A420831203131B
:1003300031140130D3238130D323B30108308A0034
:1003400033082B20FF398A110A120319AA29D12355
:10035000B30A9E290130B200B1100800B91F08008D
:100360001F30840083170008303A0319B114B11C00
:1003700031103111BB010800831203133008013A18
:10038000031DB1010130B000C721E3290800831229
:1003900003133208023A031908000130D3238530D1
:1003A000D323B30108308A0033083B20FF398A1178
:1003B0000A120319DE29D123B30AD22983120313A7
:1003C0000230B2000800831203132B08031DB10191
:1003D0002A08FA39031DB101311CF629B11CFE2986
:1003E000311D062AB11D0E2A311E152A2A18311474
:1003F0002A1C31102A193110B11008002A1C3110A2
:100400002A19B1142A1DB110311108002A1831110E
:100410002A1C31152A1DB110B11108002A183111FA
:100420002A19B1112A1DB1150800831203133008CF
:10043000023A031DB1010230B00022223E223119DE
:10044000542A0800831203133208033A03190800E0
:100450000130D3238430D323B30108308A0033081A
:100460004420FF398A110A120319392AD123B30A09
:100470002D2A831203130330B2000800311C422AD4
:10048000B11C482A2A082B0403193114B1100800A2
:10049000AA08031D31102B087F39031D3110AB1B37
:1004A0003115311DB1140800831203133008033ACB
:1004B000031DB1010330B00061223E223119842AAC
:1004C0000800831203133208043A031908000130AC
:1004D000D3238030D323B30108308A0033084F2060
:1004E000B100FF398A110A1203197F2AB10B7C2A45
:1004F000C030D323B30A6C2AD123B30A6C2A8312E7
:1005000003130430B2000800831203133008043AC6
:10051000031D8B22AE2AB401B101B801A60101303E
:10052000D3238030D323B30108308A0033086E20F0
:10053000B100FF398A110A120319A72AB10BA42AA4
:10054000C030D323B30A942AD123B30A942A831246
:1005500003130530B2000430B0000800311CB42A87
:10056000B11CBA2A311DD42A2A082B0403193114CC
:10057000B11008002A082B0403190800E1228A118F
:100580000A12B600563A0319B114031D31100319AB
:10059000D22A3608D1231030340784008317360856
:1005A0008000B40A3111080010303407840083172A
:1005B00022308000840A0D3080000030840A8000E0
:1005C000022B8B13B7012A080319EF2AB600031078
:1005D000B60C0318FD2AB70A0310B71DE82A083025
:1005E000B7002B08B6000310B60C0318FD2AB70A93
:1005F0000310371EF42A8B1721348B1708308A001A
:1006000037081A28831203133008053A031D0A23FA
:10061000172B0800B401B801B101AD01AE01A6016C
:100620000130D3238030D3230530B0000800311CC3
:10063000B42AB11C1D2B311D332B2A082B0403199E
:100640000800E1228A110A12B600563A0319B114C1
:10065000031D31100319312B360822242F103608C0
:10066000FD20311108002F101B30FD200030FD202F
:10067000392B831203133008063A031D4823063032
:10068000B000311C542BB11CAE29311D812B080048
:10069000B401B801B101AD01A6010130D32380300E
:1006A000D3230630B0000800831203133208063A41
:1006B00003196F2B0130D3238430D323B3010830C7
:1006C0008A0033088120FF398A110A1203196B2B23
:1006D000D123B30A5F2B831203130630B200BB0190
:1006E000B9013914B9143915A330BA00A420831202
:1006F000031331143F30A5000000A50B7C2BB11073
:100700000800831203133208073A03199C2B0130A7
:10071000D3238430D323B30108308A0033088B20DD
:10072000FF398A110A120319982BD123B30A8C2B93
:10073000831203130730B200051508008316F0304A
:1007400088050813881208128312081388120812E9
:10075000F0308805033088041430E72308160812A7
:100760000530E723081608120130E723081608129F
:100770000530E723F0308805023088040816081297
:100780000530E7232830D3230530E7230830D3236F
:100790000C30D3230630D3230130D3236430E72336
:1007A00008000817D52B0813D52B8812A400F030A9
:1007B0008805240E0F39880408160812F0308805C1
:1007C00024080F39880408160812F1230800A40031
:1007D000FF30A50000000000A50BEA2BA40BE82BBE
:1007E0000800C830A400152408138816081608123B
:1007F00008080816081208390319032CA40BF62B55
:10080000A4011B2401341B2400341524081388166A
:100810000816081208080739A400A40E08160812C2
:1008200008080F3924041B24080083160F3008041D
:100830008800831208008316F030080588008312B0
:100840002408080083120313A50080302604D32354
:100850002508D123260A103A3F300319A600260A9C
:10086000503A031901300319D323260A503AFF30B6
:080870000319A600A60A080006
:1010000082077E347D347B347734BE34BD34BB34C8
:10101000B734DE34DD34DB34D734EE34ED34EB3446
:10102000E7348207013402340434083410342034A5
:101030004034803482072A343034233452343734F5
:101040003834393444343434353436345534313426
:10105000323433345634820750344F3457344534A5
:10106000523420344F344E342034523445345334C7
:1010700045345434003482075334543441344E34AC
:101080004434423459340034820755344E344C349D
:101090004F3443344B3445344434213400348207D4
:1010A000453473346334723469346234693472346D
:1010B00020346D3465346E34733461346A3465348D
:1010C00001344C3465346534723420346D34653405
:1010D0006E34733461346A346534003482074D34BD
:1010E0006134723463346134203465346C342034B8
:1010F0006E3475346D34653472346F343A3401347F
:101100000034820745346E347634693461346E3489
:1011100064346F340034820745346E347634693475
:10112000613464346F342134003482002034453417
:1011300030342034563430340D34003426344634C0
:1011400030340D3400342B3443344D34473453346D
:061150003D34223400349E
:00000001FF
