:020000040000FA
:0A00060038298B13A0000308A100A5
:1000100083010408A2000A08A3008A018301851055
:100020008A018C1AED28391BB7288C1830280B1838
:100030006E20831203132A082B04031D05100319D5
:1000400005140D1E05150D1A0511851483120313D1
:1000500023088A0022088400210883002008090060
:10006000A7013D208C101211831603138C108312EC
:10007000031386010B108B150E2808308A00270801
:100080000F3900208A110A126520A9002708AC0048
:10009000291C2C165120A70A27080F39031D3D28BB
:1000A00008002A30AC19013E840008308A002C0870
:1000B00007391120A8008A110A122C1E622828096B
:1000C00080050800280880040800A8008600A80908
:1000D00006092805F039031D013400348316031383
:1000E0008C14FF309200831203138C109200910144
:1000F0008C108B110B1008008601831603178901E1
:1001000083160313F03095008316031386008113C2
:1001100083160313FF30960083120313AA01AB0169
:100120008B150B17080083160317083087008316FA
:100130000313083099009A01243098008C160C1291
:100140008312031390309800B901BA01BB01080073
:1001500039174130990054309900831603130C1657
:10016000831203130800990008001A0808000C1EE7
:1001700015283918C628B918D5283919E228BB011D
:10018000BA013913831603130C120E2808308A00A3
:100190003A089520FF3903193910BA0A8A110A1250
:1001A0003918B320391CBA010E283A08103E8317BB
:1001B000840000080319B910BA0AB918B320B91C91
:1001C000BA010E282F143A08272103193911BA0A47
:1001D0003919B320391DBA010E283B081F3E84008F
:1001E0008317B52080000D3000060319B917BB0A2C
:1001F0000E28831603130D1283120313AD01AE01F3
:10020000AF010800A4002E08831203172F1C8D00D5
:10021000831203132408831203178C008316031719
:100220008C130C158B138B1B122955308D00AA30A3
:100230008D008C148C1C1A290D12831603170C11B7
:100240008B17831203130D122F1CAE0A08002F1CEC
:100250002D08831203178D00831603178C130C14BB
:10026000831203170C08831203132F1CAD0A080016
:100270008B138A110A127C208A110A127F218A119B
:100280000A12A7238A110A1293208A110A12B001B6
:10029000B101B201B3018B1701308A003008003A76
:1002A00003198D2101308A0083013008013A0319B6
:1002B000C82102308A0083013008023A0319212242
:1002C00002308A0083013008033A031960220230A9
:1002D0008A0083013008043A0319902203308A000F
:1002E00083013008053A03190E2303308A00830185
:1002F0003008063A031944238A110A124C2983163E
:100300000317880183160313051085100511831246
:100310000313051485140515080000308312031318
:10032000B000311C9C29B11CBA29311DC8292B08E9
:100330002A04031D31100800BB01B901391496309D
:10034000BA00A8208312031331140130DC2381305A
:10035000DC23B30108308A0033082B20FF398A11CF
:100360000A120319B629DA23B30AAA290130B20006
:10037000B1100800B91F08001F308400831700085F
:10038000303A0319B114B11C31103111BB0108000E
:10039000831203133008013A031DB1010130B0008C
:1003A000D321EF290800831203133208023A0319FC
:1003B00008000130DC238530DC23B30108308A00DB
:1003C00033083B20FF398A110A120319EA29DA237C
:1003D000B30ADE29831203130230B200080083122D
:1003E00003132B08031DB1012A08FA39031DB101BB
:1003F000311C022AB11C0A2A311D122AB11D1A2AE7
:10040000311E212A2A1831142A1C31102A193110C0
:10041000B11008002A1C31102A19B1142A1DB1107C
:10042000311108002A1831112A1C31152A1DB1106A
:10043000B11108002A1831112A19B1112A1DB1155C
:100440000800831203133008023A031DB101023081
:10045000B0002E224A223119602A080083120313A9
:100460003208033A031908000130DC238430DC230E
:10047000B30108308A0033084420FF398A110A1278
:100480000319452ADA23B30A392A831203130330E6
:10049000B2000800311C4E2AB11C542A2A082B0431
:1004A00003193114B1100800AA08031D31102B08DC
:1004B0007F39031D3110AB1B3115311DB1140800FC
:1004C000831203133008033A031DB1010330B00057
:1004D0006D224A223119902A080083120313320830
:1004E000043A031908000130DC238030DC23B30117
:1004F00008308A0033084F20B100FF398A110A12F0
:1005000003198B2AB10B882AC030DC23B30A782A5E
:10051000DA23B30A782A831203130430B2000800E6
:10052000831203133008043A031D9722BA2AB40138
:10053000B101B801A6010130DC238030DC23B30116
:1005400008308A0033086E20B100FF398A110A1280
:100550000319B32AB10BB02AC030DC23B30AA02A96
:10056000DA23B30AA02A831203130530B200043041
:10057000B0000800311CC02AB11CC62A311DE02A77
:100580002A082B0403193114B11008002A082B047F
:1005900003190800ED228A110A12B600563A03190F
:1005A000B114031D31100319DE2A3608DA23103086
:1005B00034078400831736088000B40A311108001C
:1005C000103034078400831722308000840A0D30F5
:1005D00080000030840A80000E2B8B13B7012A089C
:1005E0000319FB2AB6000310B60C0318092BB70A2F
:1005F0000310B71DF42A0830B7002B08B60003100B
:10060000B60C0318092BB70A0310371E002B8B17E3
:1006100021348B1708308A0037081A2883120313F5
:100620003008053A031D1623232B0800B401B80136
:10063000B101AD01AE01A6010130DC238030DC2325
:100640000530B0000800311CC02AB11C292B311D17
:100650003F2B2A082B0403190800ED228A110A12E5
:10066000B600563A0319B114031D311003193D2B7E
:100670002F103608022127212B24311108002F10BA
:100680001A30022100300221831203133008063A87
:10069000031D53230630B000311C5E2BB11CBA2958
:1006A000311D8B2B0800B401B801B101A601013046
:1006B000DC238030DC230630B000080083120313F3
:1006C0003208063A0319792B0130DC238430DC230D
:1006D000B30108308A0033088120FF398A110A12D9
:1006E0000319752BDA23B30A692B8312031306301F
:1006F000B200BB01B9013914B9143915A330BA00DD
:10070000A8208312031331143F30A5000000A50B6D
:10071000862BB1100800831203133208073A03191D
:10072000A62B0130DC238430DC23B30108308A009F
:1007300033088B20FF398A110A120319A22BDA23FE
:10074000B30A962B831203130730B20008008316F6
:10075000F0308805081388120812831208138812D3
:100760000812F0308805033088041430F02308168E
:1007700008120530F023081608120130F02308167D
:1007800008120530F023F03088050230880408167E
:1007900008120530F0232830DC230530F023083020
:1007A000DC230C30DC230630DC230130DC23643016
:1007B000F02308000817DE2B0813DE2B8812A40094
:1007C000F0308805240E0F39880408160812F0301E
:1007D000880524080F39880408160812FA2308002F
:1007E000A400FF30A50000000000A50BF32BA40B14
:1007F000F12B0800C830A4001E2408138816081620
:100800000812080808160812083903190C2CA40B42
:10081000FF2BA40124240134242400341E240813B3
:1008200088160816081208080739A400A40E08162E
:10083000081208080F3924042424080083160F30F6
:1008400008048800831208008316F0300805880029
:1008500083122408080083120313A50080302604A5
:10086000DC232508DA23260A103A3F300319A600B4
:10087000260A503A031901300319DC23260A503A9C
:0A088000FF300319A600A60A0800C5
:1010000082077E347D347B347734BE34BD34BB34C8
:10101000B734DE34DD34DB34D734EE34ED34EB3446
:10102000E7348207013402340434083410342034A5
:101030004034803482072A343034233452343734F5
:101040003834393444343434353436345534313426
:10105000323433345634820750344F3457344534A5
:10106000523420344F344E342034523445345334C7
:1010700045345434003482075334543441344E34AC
:101080004434423459340034820755344E344C349D
:101090004F3443344B3445344434213400348207D4
:1010A000453473346334723469346234693472346D
:1010B00020346D3465346E34733461346A3465348D
:1010C00001344C3465346534723420346D34653405
:1010D0006E34733461346A346534003482074D34BD
:1010E0006134723463346134203465346C342034B8
:1010F0006E3475346D34653472346F343A3401347F
:101100000034820745346E347634693461346E3489
:1011100064346F340034820745346E347634693475
:10112000613464346F342134003482002034453417
:1011300030342034563430340D34003426344634C0
:1011400030340D3400342B3443344D34473453346D
:061150003D34223400349E
:00000001FF
