:020000040000FA
:0A000600A0298B13A0000308A1003D
:1000100083010408A2000A08A3008A0183160313BF
:100020000C1A182983018A018C1A62298C182C2831
:100030000B184F28831203132A082B07031D0510E2
:10004000031905148312031323088A00220884006D
:1000500021088300200809008030A7002C082A0608
:10006000031D77208430A7002C082A06031D772063
:100070008830A7002D082B06031D77208C30A700A1
:100080002D082B06031D77208C10121183160313E5
:100090008C108312031386010B108B151228A701F5
:1000A0008601861F77200430A7008601061F77206F
:1000B0000830A7008601861E77200C30A700860135
:1000C000061E77202C082A06A8002D082B062804D7
:1000D000031DBA208312031386012C082A06A800E8
:1000E0002D082B062804031D8B110B101228083035
:1000F0008A0027080F3900208A110A12B120A900AE
:10010000AE0127081038291C2038A71B2038AE0064
:100110009820A71B8C2891282708291C2038AE007E
:1001200098208601A70A27080339031908007728B1
:100130002A302E1A023EAE19013E840008308A0091
:100140002E08073911208A01A80000082805031D80
:10015000AD282808AE1E800408002808AE1A8006C4
:100160000800A8008600A80906092805F039031D23
:1001700001340034831603138C140130920083126F
:1001800003138C109201121591018C1CC5281211B9
:100190008C1083160313FF30920083120313920016
:1001A00008008312031300308600831603178901A9
:1001B00083160313F030950083160313F030860086
:1001C000811383160313FF30960083120313AC01CF
:1001D000AD01AA01AB018B150B170800831603179D
:1001E0000830870083160313083099009A012430E1
:1001F00098008C160C128312031390309800BA01E9
:10020000BB01BC010800831203133A1783120313C6
:100210004130990054309900831603130C160800DE
:100220008312031399000800831203131A080800AD
:10023000831603130C1E1228981C12288312031312
:100240003A183029BA183D293A194C29BC01BB018A
:10025000831603130C12122810218A110A12122875
:1002600008308A003B085620BB0AFF3903193A10B0
:100270008A110A12031918292C293B08103E8317EA
:1002800084000008BB0AFF39031947212C29831277
:100290000313BA10BB010A30831203133B08831205
:1002A00003178D008A110A129021BB0AFF398A11A7
:1002B0000A1203195C212C2983120313BB013A1182
:1002C0001A3008003C081F3E840083171421800068
:1002D0000D3000060319BA17BC0A1228831603133F
:1002E0000C1283120313AF01B001F0010800831256
:1002F00003178C0083120313701C3008831203173A
:10030000701C8D00831603178C130C158B138B1B1D
:10031000862955308D00AA308D008C140C110900EF
:1003200083120313701C2F0883120317701C8D0097
:10033000831603178C130C14831203170C08080080
:100340008B138A110A12D1208A110A12E7218A110D
:100350000A12A9248A110A12EE208A110A12B10186
:10036000B201B301B4018B1701308A003108003AA1
:100370000319F12102308A0083013108013A03197F
:10038000212202308A0083013108023A0319CE2269
:1003900003308A0083013108033A03191323033021
:1003A0008A0083013108043A0319472303308A0085
:1003B00083013108053A0319E42304308A008301DC
:1003C0003108063A03196E248A110A12B4298316D9
:1003D00003178801831603130510831203130514F2
:1003E0000800003083120313B100321C002AB21C33
:1003F000102A321D212A2B082A04031D321008005E
:10040000BC01BA013A145730BB0003218312031315
:1004100032143F30A5000000A50B0B2AB2100800D3
:10042000BA1F08001F3084008317CF30DE24000875
:10043000DC240008303A0319B214B21C3210BC019B
:100440000800831203133108013A031DB201013081
:10045000B1002C2248220800831203133308013A0A
:10046000031908000130DE248530DE24B401083091
:100470008A0034081A20FF398A110A120319432A04
:10048000DC24B40A372A831203130130B3000800B6
:10049000831203132B08031DB2015C222A08DE39E4
:1004A000031DB201321CAF2AB21CB72A321DBF2A6B
:1004B000B21DC72A321ECE2AC030DE242A1C30309C
:1004C0002A183130DC24AA1C3030AA183130DC2440
:1004D0002A1D30302A193130DC24AA1D3030AA19E7
:1004E0003130DC242A1E30302A1A3130DC24AA1E96
:1004F0003030AA1A3130DC242A1F30302A1B313028
:10050000DC24AA1F3030AA1B3130DC242B1C3030F5
:100510002B183130DC24AB1C3030AB183130DC24EC
:100520002B1D30302B193130DC24AB1D3030AB1992
:100530003130DC242B1E30302B1A3130DC24AB1E42
:100540003030AB1A3130DC242B1F30302B1B3130D4
:10055000DC24AB1F3030AB1B3130DC2408002A1800
:1005600032142A1C3210AA1A3210B21008002A1CA7
:100570003210AA1AB214AA1EB210321108002A1898
:1005800032112A1C3215AA1EB210B21108002A1804
:100590003211AA1AB211AA1EB2150800831203134F
:1005A0003108023A031DB201323010210230B1008D
:1005B000DD22F922B218132B08008312031333082B
:1005C000023A031908000130DE248530DE24B4012C
:1005D00008308A0034082320FF398A110A120319CF
:1005E000F42ADC24B40AE82A831203130230B3008D
:1005F0000800321CFD2AB21C052B2A082B04031903
:100600003214B210673010210800AA08031D3210FE
:100610002B08FE39031D3210AB1B3215321DB214EC
:10062000473010210800831203133108033A031DD9
:10063000B201333010210330B1002223F922B21C61
:10064000472B0800831203133308033A03190800E9
:100650000130DE248030DE24B40108308A00340802
:100660002E20B200FF398A110A1203193F2BB20B58
:100670003C2B4423B40A2D2BDC24B40A2D2B8312EB
:1006800003130330B3000800C030DE2408008312D7
:1006900003133108043A031D53233430102103306F
:1006A00084005D230800B501B901AF01B001A601C6
:1006B0000130DE240430B10008002A082B04031D99
:1006C000632B0319DD2BB601B8012A080319732B1C
:1006D000B70003101030B800B70C0318B60AB80AF8
:1006E000B819732B6C2B2B080319812BB700FF3023
:1006F000B8000310B70C0318B60AB80AB819812B52
:100700007A2BB60B0800B8012B08031DB815B81DCD
:100710002A08B700B70C0318B60A3618912BB80A86
:100720008A2B35080F393806031D9D2B0319982B8A
:1007300039189D2BB91808009D2B391C080003306F
:100740008A0035080F398207B42BB62BB82BBA2B89
:10075000BB2BBD2BBF2BC12BC22BC42BC62BC82B35
:10076000C92BCB2BCD2BCF2B2A30D12B3030D12BFB
:100770002330D12B132B3730D12B3830D12B3930BC
:10078000D12BD62B3430D12B3530D12B3630D12B49
:10079000D62B3130D12B3230D12B3330D12B00300E
:1007A000D12BB7002D25370870107721B708031912
:1007B000E42B37080F39B5000800533010216300CF
:1007C0008312031339140800831203133108053A06
:1007D000031D5323EC2308002A082B04031DF22BCE
:1007E0000319DD2BB6012A080319012CB7000310E9
:1007F0001030B800B70C0318B60AB80AB819012CA3
:10080000FA2B2B0803190E2CB700BF30B800B70C19
:100810000318B60AB80AB8190E2C072CB60B080034
:10082000B8012B080319B815B81D2A08B700B70C72
:100830000318B60A36181E2CB80A172C35080F39BB
:100840003806031D2A2C0319252C39180800B9185D
:1008500008002A2C391C080004308A0035080F399A
:100860008207412C432C452C472C482C4A2C4C2CDD
:100870004E2C4F2C512C532C552C562C582C5A2C7A
:100880005C2C2A305E2C30305E2C23305E2C472BC3
:1008900037305E2C38305E2C39305E2C662C34308C
:1008A0005E2C35305E2C36305E2C662C31305E2C62
:1008B00032305E2C33305E2C2230662CB7002D2572
:1008C000831726300F3E8400370880003708223A0D
:1008D00003196E2C37080F39B50008008312031373
:1008E0003108063A031DB2010630B100321C7E24E5
:1008F000B21C1022321D132B630008008312031355
:100900003308043A031908000130DE248530DE2460
:10091000B40108308A0034084C20FF398A110A12C9
:100920000319952CDC24B40A892C83120313043098
:10093000B300073083120313BA006430BB000321F5
:100940008312031332143F30A5000000A50BA52C21
:1009500008008316F03088050813881208128312E5
:10096000081388120812F030880503308804143008
:10097000F224081608120530F22408160812013075
:10098000F224081608120530F224F03088050230EF
:100990008804081608120530F2242030DE240530C1
:1009A000F2240830DE240C30DE240630DE24013050
:1009B000DE246430F22408000817E02C0813E02C31
:1009C0008812A400F0308805240E0F398804081618
:1009D0000812F030880524080F3988040816081218
:1009E000FC240800A400FF30A50000000000A50BB7
:1009F000F52CA40BF32C0800C830A4002025081304
:100A0000881608160812080808160812083903196B
:100A10000E2DA40B012DA40126250134262500341A
:100A20002025081388160816081208080739A4009C
:100A3000A40E0816081208080F39240426250800F9
:100A400083160F3008048800831208008316F030E4
:100A50000805880083122408080083120313A500E8
:100A600080302604DE242508DC24260A203A0319D7
:100A7000A616260A503AFF300319A600A60A080057
:1010000082077E347D347B347734BE34BD34BB34C8
:10101000B734DE34DD34DB34D734EE34ED34EB3446
:10102000E7348207013402340434083410342034A5
:101030004034803482075334543441344E34443481
:10104000423459340034820755344E344C344F34D2
:1010500043344B344534443421340034820745341E
:1010600073346334723469346234693472342034D2
:101070006D3465346E34733461346A3465340134EC
:101080004C3465346534723420346D3465346E34D8
:10109000733461346A346534820745346E3476348F
:1010A000693461346E3464346F3400348200203427
:1010B000453430342034563430340D340034263442
:1010C000463430340D3400342B3443344D344734FB
:0810D00053343D342234003496
:00000001FF
