:020000040000FA
:0A0006009D298B13A0000308A10040
:1000100083010408A2000A08A3008A0183160313BF
:100020000C1A182983018A018C1A62298C182C2831
:100030000B184F28831203132A082B07031D0510E2
:10004000031905148312031323088A00220884006D
:1000500021088300200809008030A7002C082A0608
:10006000031D77208430A7002C082A06031D772063
:100070008830A7002D082B06031D77208C30A700A1
:100080002D082B06031D77208C10121183160313E5
:100090008C108312031386010B108B151228A701F5
:1000A0008601861F77200430A7008601061F77206F
:1000B0000830A7008601861E77200C30A700860135
:1000C000061E77202C082A06A8002D082B062804D7
:1000D000031DBA208312031386012C082A06A800E8
:1000E0002D082B062804031D8B110B101228083035
:1000F0008A0027080F3900208A110A12B120A900AE
:10010000AE0127081038291C2038A71B2038AE0064
:100110009820A71B8C2891282708291C2038AE007E
:1001200098208601A70A27080339031908007728B1
:100130002A302E1A023EAE19013E840008308A0091
:100140002E08073911208A01A80000082805031D80
:10015000AD282808AE1E800408002808AE1A8006C4
:100160000800A8008600A80906092805F039031D23
:1001700001340034831603138C140130920083126F
:1001800003138C109201121591018C1CC5281211B9
:100190008C1083160313FF30920083120313920016
:1001A00008008312031300308600831603178901A9
:1001B00083160313F030950083160313F030860086
:1001C000811383160313FF30960083120313AC01CF
:1001D000AD01AA01AB018B150B170800831603179D
:1001E0000830870083160313083099009A012430E1
:1001F00098008C160C128312031390309800BA01E9
:10020000BB01BC010800831203133A1783120313C6
:100210004130990054309900831603130C160800DE
:100220008312031399000800831203131A080800AD
:10023000831603130C1E1228981C12288312031312
:100240003A183029BA183D293A194C29BC01BB018A
:10025000831603130C12122810218A110A12122875
:1002600008308A003B085620BB0AFF3903193A10B0
:100270008A110A12031918292C293B08103E8317EA
:1002800084000008BB0AFF39031947212C29831277
:100290000313BA10BB010A30831203133B08831205
:1002A00003178D008A110A128D21BB0AFF398A11AA
:1002B0000A1203195C212C2983120313BB013A1182
:1002C0001A300800BA173C081F3E84008317142117
:1002D0008000BC0A1228831603130C128312031326
:1002E000AF01B001F0010800831203178C008312E4
:1002F0000313701C300883120317701C8D008316C3
:1003000003178C130C158B138B1B832955308D0011
:10031000AA308D008C140C11090083120313701C79
:100320002F0883120317701C8D00831603178C137C
:100330000C14831203170C0808008B138A110A127D
:10034000D1208A110A12E4218A110A1244248A1146
:100350000A12EE208A110A12B101B201B301B401EE
:100360008B1701308A003108003A0319EE21023060
:100370008A0083013108013A0319202202308A00E1
:1003800083013108023A03197B2202308A0083017B
:100390003108033A0319B82202308A008301310878
:1003A000043A0319EA2203308A0083013108053A2E
:1003B00003197F2304308A0083013108063A0319A8
:1003C00009248A110A12B12983160317880183169A
:1003D0000313051083120313051408000030831261
:1003E0000313B100321CFD29B21C0D2A321D202A34
:1003F0002B082A04031D32100800BC01BA013A146C
:100400005730BB0003218312031332143F30A50081
:100410000000A50B082AB21008003C0803190800C8
:100420001F3084008317CF30792400087724000818
:100430000D3A031932100008303A031DB2140800B7
:10044000831203133108013A031DB2010130B100D8
:100450002E224A22321E7B2A6300080083120313D5
:100460003308013A031908000130792485307924D2
:10047000B40108308A0034081A20FF398A110A12A0
:100480000319452A7724B40A392A83120313013049
:10049000B3000800831203132B08031DB2012A08BE
:1004A000FA39031DB201321C5B2AB21C632A321DC9
:1004B0006B2AB21D732A2A1832142A1C32102A19E8
:1004C0003210B21008002A1C32102A19B2142A1D48
:1004D000B210321108002A1832112A1C32152A1DB6
:1004E000B210B21108002A1832112A1DB2112A19AD
:1004F000B21532120800831203133108023A031DA9
:10050000B2010230B1008822A422B218B82A080031
:10051000831203133308023A0319080001307924C7
:1005200085307924B40108308A0034082320FF394B
:100530008A110A1203199F2A7724B40A932A831274
:1005400003130230B3000800321CA82AB21CAE2AE2
:100550002A082B0403193214B2100800AA08031940
:1005600032102B08FE3903193210AB1BB2140800ED
:10057000831203133108033A031DB2010330B100A3
:10058000C522A422B21CEA2A0800831203133308EE
:10059000033A031908000130792480307924B4012A
:1005A00008308A0034082E20B200FF398A110A125E
:1005B0000319E22AB20BDF2AE722B40AD02A7724F1
:1005C000B40AD02A831203130330B3000800C030EA
:1005D00079240800831203133108043A031DF4221E
:1005E00003308400FC220800B501B901AF01B0015D
:1005F000A6010130792408002A082B04031D022BD0
:1006000003197A2BB6012A080319112BB70003101E
:100610001030B800B70C0318B60AB80AB819112B75
:100620000A2B2B080319112BB700BF30B800B70CE9
:100630000318B60AB80AB8191E2B172BB60B0800F8
:10064000B8012B080319B815B81D2A08B700B70C54
:100650000318B60A36182E2BB80A272B35080F397F
:100660003806031D3A2B0319352B39183A2BB918C4
:1006700008003A2B391C080003308A0035080F396E
:100680008207512B532B552B572B582B5A2B5C2B56
:100690005E2B5F2B612B632B652B662B682B6A2BE4
:1006A0006C2B2A306E2B30306E2B23306E2BB82AF9
:1006B00037306E2B38306E2B39306E2B732B343035
:1006C0006E2B35306E2B36306E2B732B31306E2BFC
:1006D00032306E2B33306E2B00306E2BB700C824B7
:1006E000370870107421B70803197F2B37080F39AA
:1006F000B500080063008312031339140800831245
:1007000003133108053A031DF422872308002A0841
:100710002B04031D8D2B03197A2BB6012A0803190C
:100720009C2BB70003101030B800B70C0318B60AA2
:10073000B80AB8199C2B952B2B0803199C2BB700D2
:10074000BF30B800B70C0318B60AB80AB819A92BFD
:10075000A22BB60B0800B8012B080319B815B81D59
:100760002A08B700B70C0318B60A3618B92BB80A0E
:10077000B22B35080F393806031DC52B0319C02BC2
:1007800039180800B9180800C52B391C08000330B7
:100790008A0035080F398207DC2BDE2BE02BE22B99
:1007A000E32BE52BE72BE92BEA2BEC2BEE2BF02BA5
:1007B000F12BF32BF52BF72B2A30F92B3030F92BBB
:1007C0002330F92BEA2A3730F92B3830F92B39301E
:1007D000F92B012C3430F92B3530F92B3630F92B2D
:1007E000012C3130F92B3230F92B3330F92B2230F8
:1007F000F92BB700C824831726300F3E8400370832
:1008000080003708223A0319092C37080F39B50040
:100810000800831203133108063A031DB2010630A3
:10082000B100321C1924B21C0D22321DB82A6300FB
:100830000800831203133308043A03190800013037
:10084000792485307924B40108308A0034084C209A
:10085000FF398A110A120319302C7724B40A242C88
:10086000831203130430B300073083120313BA005A
:100870006430BB0003218312031332143F30A50000
:100880000000A50B402C08008316F03088050813E3
:10089000881208128312081388120812F030880593
:1008A0000330880414308D240816081205308D2476
:1008B0000816081201308D240816081205308D2400
:1008C000F0308805023088040816081205308D249F
:1008D0002030792405308D24083079240C30792497
:1008E000063079240130792464308D2408000817FB
:1008F0007B2C08137B2C8812A400F0308805240E72
:100900000F39880408160812F030880524080F39BA
:1009100088040816081297240800A400FF30A500D8
:1009200000000000A50B902CA40B8E2C0800C830F2
:10093000A400BB2408138816081608120808081615
:10094000081208390319A92CA40B9C2CA401C1245A
:100950000134C1240034BB24081388160816081279
:1009600008080739A400A40E0816081208080F3951
:100970002404C124080083160F3008048800831261
:1009800008008316F0300805880083122408080048
:1009900083120313A50080302604792425087724C8
:1009A000260A203A0319A616260A503AFF300319E0
:0609B000A600A60A0800E3
:1010000082077E347D347B347734BE34BD34BB34C8
:10101000B734DE34DD34DB34D734EE34ED34EB3446
:10102000E7348207013402340434083410342034A5
:101030004034803482075334543441344E34443481
:10104000423459340034820755344E344C344F34D2
:1010500043344B344534443421340034820745341E
:1010600073346334723469346234693472342034D2
:101070006D3465346E34733461346A3465340134EC
:101080004C3465346534723420346D3465346E34D8
:10109000733461346A346534820745346E3476348F
:1010A000693461346E3464346F3400348200203427
:1010B000453430342034563430340D340034263442
:1010C000463430340D3400342B3443344D344734FB
:0810D00053343D342234003496
:00000001FF
