:020000040000FA
:0A00060033298B13A0000308A100AA
:1000100083010408A2000A08A3008A018301851055
:100020008A018C1AF828391BC3288C182C280B1825
:100030007A20831203132A082B04031D05100319C9
:10004000051485148312031323088A0022088400F0
:100050002108830020080900A7018601861F4A2085
:100060000430A7008601061F4A200830A700860139
:10007000861E4A200C30A7008601061E4A208C10DE
:100080001211831603138C108312031386010B10B5
:100090008B150E2808308A0027080F3900208A1196
:1000A0000A127120A9002708AC00291C2C165D201B
:1000B000A70A271CA7184A2808002A30AC19013EB5
:1000C000840008308A002C0807391120A8008A1102
:1000D0000A122C1E6E2828098005080028088004B2
:1000E0000800A8008600A80906092805F039031DA4
:1000F00001340034831603138C14FF3092008312F2
:1001000003138C10920091018C108B110B100800BE
:10011000860183160317890183160313F0309500B7
:10012000831603138600811383160313FF30960092
:1001300083120313AA01AB018B150B17080083165A
:1001400003170830870083160313083099009A01BB
:10015000243098008C160C128312031390309800F0
:10016000B901BA01BB010800391741309900543078
:100170009900831603130C168312031308009900C9
:1001800008001A0808000C1E15283918D228B918BA
:10019000E1283919EE28BB01BA013913831603137C
:1001A0000C120E2808308A003A086620FF3903191D
:1001B0003910BA0A8A110A123918BF20391CBA013B
:1001C0000E283A08103E8317840000080319B9105E
:1001D000BA0AB918BF20B91CBA010E283A0826215C
:1001E00003193911BA0A3919BF20391DBA010E286D
:1001F0003B081F3E84008317C12080000D3000069D
:100200000319B917BB0A0E28831603130C128312A5
:100210000313AD01AE01AF010800831203178C0078
:10022000831203132F1C2E08831203172F1C8D001B
:10023000831603178C130C158B138B1B1C2955303D
:100240008D00AA308D008C140C1109008312031745
:100250008D00831603178C130C14831203170C08DC
:100260008312031308008B138A110A1288208A1143
:100270000A127A218A110A12FB238A110A129F207C
:100280008A110A12B001B101B201B3018B1701301A
:100290008A003008003A0319882101308A0083015E
:1002A0003008013A0319C72102308A00830130085F
:1002B000023A0319202202308A0083013008033AEF
:1002C0000319652202308A0083013008043A0319B9
:1002D000992203308A0083013008053A0319362336
:1002E00003308A0083013008063A0319C0238A11BB
:1002F0000A12472983160317880183160313051072
:1003000085100511831203130514851405150800C3
:10031000003083120313B000311C98290511B11C61
:10032000BA29311DC7292B082A04031D31100800E2
:10033000BB01B901391439176730BA00B4208316EC
:1003400003130C168312031331140130302481304F
:100350003024B30108308A0033081A20FF398A118B
:100360000A120319B6292E24B30AAA290530B200AD
:10037000B1100800B91F08001F308400831700085F
:10038000303A0319B114B11C3110BB0108008312BB
:1003900003133008013A031DB1010130B000D2212E
:1003A000EE210800831203133208013A03190800F2
:1003B0000130302485303024B30108308A003308FE
:1003C0002A20FF398A110A120319E9292E24B30AB7
:1003D000DD29831203130130B200080083120313D6
:1003E0002B08031DB1012A08DE39031DB101311CA0
:1003F000012AB11C092A311D112AB11D192A311EE9
:10040000202A2A1831142A1C3110AA1A3110B110CE
:1004100008002A1C3110AA1AB114AA1EB1103111F9
:1004200008002A1831112A1C3115AA1EB110B11169
:1004300008002A183111AA1AB111AA1EB115080014
:10044000831203133008023A031DB1013230BF207A
:100450000230B0002F224B22B118652A0800831207
:1004600003133208023A03190800013030248530A2
:100470003024B30108308A0033083320FF398A1151
:100480000A120319462A2E24B30A3A2A83120313A6
:100490000230B2000800311C4F2AB11C572A2A082A
:1004A0002B0403193114B1106730BF200800AA08CB
:1004B000031D31102B08FE39031D3110AB1B311504
:1004C000311DB1144730BF200800831203133008D8
:1004D000033A031DB1013330BF200330B000742252
:1004E0004B22B11C992A0800831203133208033AE5
:1004F000031908000130302480303024B301083063
:100500008A0033083E20B100FF398A110A1203190C
:10051000912AB10B8E2A9622B30A7F2A2E24B30A7F
:100520007F2A831203130330B2000800C030302446
:100530000800831203133008043A031DA522343047
:10054000BF2003308400AF220800B401B801AD0120
:10055000AE01A601013030240430B00008002A08A2
:100560002B04031DB52A03192F2BB501B7012A0847
:100570000319C52AB60003101030B700B60C0318D3
:10058000B50AB70AB719C52ABE2A2B080319D32AF8
:10059000B600FF30B7000310B60C0318B50AB70A4F
:1005A000B719D32ACC2AB50B0800B7012B08031DB5
:1005B000B715B71D2A08B600B60C0318B50A3518CA
:1005C000E32AB70ADC2A34080F393706031DEF2A5D
:1005D0000319EA2A3818EF2AB8180800EF2A381C3D
:1005E000080002308A0034080F398207062B082BD6
:1005F0000A2B0C2B0D2B0F2B112B132B142B162B23
:10060000182B1A2B1B2B1D2B1F2B212B2A30232B96
:100610003030232B2330232B652A3730232B3830DF
:10062000232B3930232B282B3430232B3530232B0D
:100630003630232B282B3130232B3230232B3330F1
:10064000232B0030232BB6007F2436082F100D21DA
:10065000B6080319362B36080F39B400080053309A
:10066000BF2063008312031338140800831203139E
:100670003008053A031DA5223E2308002A082B0452
:10068000031D442B03192F2BB5012A080319532BE3
:10069000B60003101030B700B60C0318B50AB70A3D
:1006A000B719532B4C2B2B080319602BB600BF3006
:1006B000B700B60C0318B50AB70AB719602B592B47
:1006C000B50B0800B7012B080319B715B71D2A0889
:1006D000B600B60C0318B50A3518702BB70A692B8B
:1006E00034080F393706031D7C2B0319772B381874
:1006F0000800B81808007C2B381C080003308A005A
:1007000034080F398207932B952B972B992B9A2B13
:100710009C2B9E2BA02BA12BA32BA52BA72BA82B6F
:10072000AA2BAC2BAE2B2A30B02B3030B02B233081
:10073000B02B992A3730B02B3830B02B3930B02B52
:10074000B82B3430B02B3530B02B3630B02BB82B23
:100750003130B02B3230B02B3330B02B2230B82BAD
:10076000B6007F24831726300F3E840036088000B1
:100770003608223A0319C02B36080F39B400080096
:10078000831203133008063A031DB1010630B0008E
:10079000311CD023B11CBA21311D652A6300080029
:1007A000831203133208043A03190800013030247D
:1007B00085303024B30108308A0033085C20FF39CB
:1007C0008A110A120319E72B2E24B30ADB2B83129A
:1007D00003130430B200073083120313B9007430DE
:1007E000BA00B4208312031331143F30A500000077
:1007F000A50BF72B08008316F03088050813881224
:1008000008128312081388120812F030880503308A
:1008100088041430442408160812053044240816AD
:100820000812013044240816081205304424F03020
:100830008805023088040816081205304424203048
:10084000302405304424083030240C303024063065
:100850003024013030246430442408000817322C3E
:100860000813322C8812A400F0308805240E0F39AA
:10087000880408160812F030880524080F39880407
:10088000081608124E240800A400FF30A50000003E
:100890000000A50B472CA40B452C0800C830A40071
:1008A0007224081388160816081208080816081279
:1008B00008390319602CA40B532CA40178240134AB
:1008C00078240034722408138816081608120808C1
:1008D0000739A400A40E0816081208080F392404CA
:1008E0007824080083160F3008048800831208005B
:1008F0008316F0300805880083122408080083124C
:100900000313A50080302604302425082E24260A4F
:10091000203A0319A616260A503AFF300319A600FA
:04092000A60A08001B
:1010000082077E347D347B347734BE34BD34BB34C8
:10101000B734DE34DD34DB34D734EE34ED34EB3446
:10102000E7348207013402340434083410342034A5
:1010300040348034820750344F345734453452346E
:1010400020344F344E3420345234453453344534F4
:101050005434003482075334543441344E344434CD
:10106000423459340034820755344E344C344F34B2
:1010700043344B34453444342134003482074534FE
:1010800073346334723469346234693472342034B2
:101090006D3465346E34733461346A3465340134CC
:1010A0004C3465346534723420346D3465346E34B8
:1010B000733461346A346534820745346E3476346F
:1010C000693461346E3464346F3400348200203407
:1010D000453430342034563430340D340034263422
:1010E000463430340D3400342B3443344D344734DB
:0810F00053343D342234003476
:00000001FF
