:020000040000FA
:0A000600EA288B13A0000308A100F4
:1000100083010408A2000A08A3008A0103018301E6
:100020008C182928FF39031D17280B1869288312FB
:10003000031327082807031D05100319051483124D
:10004000031323088A002208840021088300200863
:10005000090003012908270603190830A400241EFB
:100060002A08241E2806A60008308A000730240526
:100070001120A50026058A110A1203195128AB0187
:1000800008308A00240800208A110A12CA20013987
:100090000319AB162408AB04B12024083038AB0098
:1000A000B120A40A2908A4192A08A41D2706A41906
:1000B0002806A600241A5D2834288C1012118316F5
:1000C00003138C1083120313FF3086008B15FF304F
:1000D0000F28A401861F9720F030861BA905043045
:1000E000A400061F97200F30061BA9050830A400A6
:1000F000861E9720F030861AAA050B30A400061E33
:1001000097200F30861BAA0529082706A5002A0874
:1001100028062504031DD320860129082706A500EB
:100120002A0828062504031D8B110B100F28083000
:100130008A00240800208A110A12CA20A500AB01F7
:1001400024081038251C2038AB00B120A40A24084C
:10015000A501241CA50AA41CA50A8601A51808004F
:10016000972827302B1A023EAB19013E8400083035
:100170008A002B08073911208A01A50000082505EF
:10018000031DC6282508AB1E800408002508AB1AED
:1001900080060800A5008600A50906092505F03996
:1001A000031D01340034831603138C1401309200B4
:1001B000831203138C109201121591018C1CDE28FE
:1001C00012118C1083160313FF3092008312031355
:1001D000920008008B138A110A12BC218A110A129C
:1001E000D9218A110A1238218A110A12E321AE019B
:1001F0008B1701308A002E08003A0319E4210130E0
:100200008A0083012E08013A0319E52101308A0092
:1002100083012E08023A0319E62101308A00830186
:100220002E08043A0319E82101308A0083012E08C0
:10023000033A0319E72101308A0083012E08053AA9
:100240000319E92101308A0083012E08063A0319B7
:10025000EA2101308A0083012E08073A0319EC21B4
:1002600001308A0083012E08083A0319EB21F9288E
:100270008316F030880508138812081283120813B9
:1002800088120812F0308805033088041430812168
:100290000816081205308121081608120130812144
:1002A0000816081205308121F030880502308804D4
:1002B000081608120530812120306D21053081217A
:1002C00008306D210C306D2106306D2101306D211B
:1002D00064308121080008176F2908136F298812DC
:1002E000AC00F03088052C0E0F398804081608126F
:1002F000F03088052C080F398804081608128B2165
:100300000800AC00FF30AD0000000000AD0B8429F8
:10031000AC0B82290800C830AC00AF210813881646
:1003200008160812080808160812083903199D292A
:10033000AC0B9029AC01B5210134B5210034AF21BB
:10034000081388160816081208080739AC00AC0E06
:100350000816081208080F392C04B5210800831666
:100360000F3008048800831208008316F030080557
:10037000880083122C0808008312031300308600C3
:1003800083160317890183160313F0309500831633
:100390000313F0308600811383160313FF30960099
:1003A00083120313A901AA01A701A8018B150B173A
:1003B00008008316031788018316031305108312A0
:1003C00003130514080008000800080008000800CE
:0A03D00008000800080008000800FB
:1010000082077E347D347B347734BE34BD34BB34C8
:10101000B734DE34DD34DB34D734EE34ED34EB3446
:10102000E7348207013402340434083410342034A5
:041030004034803494
:00000001FF
