:020000040000FA
:0A0006003A298B13A0000308A100A3
:1000100083010408A2000A08A3008A018301851055
:100020008A018C1AEF28391BB7288C1830280B1836
:100030006E20831203132A082B04031D05100319D5
:1000400005140D1E05150D1A0511851483120313D1
:1000500023088A0022088400210883002008090060
:10006000A7013D208C101211831603138C108312EC
:10007000031386010B108B150E2808308A00270801
:100080000F3900208A110A126520A9002708AC0048
:10009000291C2C165120A70A27080F39031D3D28BB
:1000A00008002A30AC19013E840008308A002C0870
:1000B00007391120A8008A110A122C1E622828096B
:1000C00080050800280880040800A8008600A80908
:1000D00006092805F039031D013400348316031383
:1000E0008C14FF309200831203138C109200910144
:1000F0008C108B110B1008008601831603178901E1
:1001000083160313F03095008316031386008113C2
:1001100083160313FF30960083120313AA01AB0169
:100120008B150B17080083160317083087008316FA
:100130000313083099009A01243098008C160C1291
:100140008312031390309800B901BA01BB01080073
:1001500039174130990054309900831603130C1657
:10016000831203130800990008001A0808000C1EE7
:1001700015283918C628B918D5283919E228BB011D
:10018000BA013913831603130C120E2808308A00A3
:100190003A089520FF3903193910BA0A8A110A1250
:1001A0003918B320391CBA010E283A08103E8317BB
:1001B000840000080319B910BA0AB918B320B91C91
:1001C000BA010E283A08293E831784000008031953
:1001D0003911BA0A3919B320391DBA010E283B0862
:1001E0001F3E84008317B52080000D3000060319E0
:1001F000B917BB0A0E28831603130D1283120313BB
:10020000AD01AE01AF010800831203178C00831209
:1002100003132E08831203172F1C8D008316031758
:100220008B138B1B10298C130C1555308D00AA30A5
:100230008D008C148C1C1A290D12831603170C11B7
:100240008B17831203130D122F1CAE0A08002F1CEC
:100250002D08831203178D00831603178C130C14BB
:100260000C183029831203170C08831203132F1C58
:10027000AD0A08008B138A110A127C208A110A1217
:1002800081218A110A12AE238A110A1293208A113F
:100290000A12B001B101B201B3018B1701308A001B
:1002A0003008003A03198F2101308A008301300899
:1002B000013A0319CA2102308A0083013008023A48
:1002C0000319232202308A0083013008033A0319FC
:1002D000622202308A0083013008043A0319922214
:1002E00003308A0083013008053A031910230330D4
:1002F0008A0083013008063A03194E238A110A1234
:100300004E298316031788018316031305108510E1
:100310000511831203130514851405150800003018
:1003200083120313B000311C9E29B11CBC29311D5E
:10033000CA292B082A04031D31100800BB01B9018A
:1003400039149630BA00A8208312031331140130F7
:10035000E3238130E323B30108308A0033082B20E4
:10036000FF398A110A120319B829E123B30AAC290B
:100370000130B200B1100800B91F08001F3084001E
:1003800083170008303A0319B114B11C3110311130
:10039000BB010800831203133008013A031DB101A9
:1003A0000130B000D521F12908008312031332086F
:1003B000023A031908000130E3238530E323B30137
:1003C00008308A0033083B20FF398A110A120319CA
:1003D000EC29E123B30AE029831203130230B200AF
:1003E0000800831203132B08031DB1012A08FA39F0
:1003F000031DB101311C042AB11C0C2A311D142A21
:10040000B11D1C2A311E232A2A1831142A1C31102E
:100410002A193110B11008002A1C31102A19B11400
:100420002A1DB110311108002A1831112A1C31156A
:100430002A1DB110B11108002A1831112A19B11161
:100440002A1DB1150800831203133008023A031D58
:10045000B1010230B00030224C223119622A08006A
:10046000831203133208033A031908000130E3230F
:100470008430E323B30108308A0033084420FF3975
:100480008A110A120319472AE123B30A3B2A83126D
:1004900003130330B2000800311C502AB11C562A45
:1004A0002A082B0403193114B1100800AA08031DEF
:1004B00031102B087F39031D3110AB1B3115311D55
:1004C000B1140800831203133008033A031DB1016D
:1004D0000330B0006F224C223119922A0800831297
:1004E00003133208043A031908000130E323803073
:1004F000E323B30108308A0033084F20B100FF39ED
:100500008A110A1203198D2AB10B8A2AC030E323FB
:10051000B30A7A2AE123B30A7A2A83120313043036
:10052000B2000800831203133008043A031D992215
:10053000BC2AB401B101B801A6010130E323803027
:10054000E323B30108308A0033086E20B100FF397D
:100550008A110A120319B52AB10BB22AC030E3235B
:10056000B30AA22AE123B30AA22A83120313053095
:10057000B2000430B0000800311CC22AB11CC82AE5
:10058000311DE22A2A082B0403193114B110080086
:100590002A082B0403190800EF228A110A12B60058
:1005A000563A0319B114031D31100319E02A360815
:1005B000E123103034078400831736088000B40A22
:1005C0003111080010303407840083172230800076
:1005D000840A0D308000840A00308000102B8B13B9
:1005E000B7012A080319FD2AB6000310B60C031838
:1005F0000B2BB70A0310B71DF62A0830B7002B08DB
:10060000B6000310B60C03180B2BB70A0310371EE5
:10061000022B8B1721348B1708308A0037081A28D1
:10062000831203133008053A031D1823252B0800F5
:10063000B401B801B101AD01AE01A6010130E3235F
:100640008030E3230530B0000800311CC22AB11C01
:100650002B2B311D452B2A082B0403190800EF22F0
:100660008A110A12B600563A0319B114031D31104B
:100670000319432B29303407840083173608800080
:10068000B40A3608322431110800103034078400CF
:1006900083171A308000840A00308000831203130D
:1006A0003008063A031D5D230630B000311C652B6F
:1006B000B11CBC29311D922B0800B1010130E3238C
:1006C0008030E3230630B0000800831203133208A1
:1006D000063A0319802B0130E3238430E323B3016E
:1006E00008308A0033088120FF398A110A12031961
:1006F0007C2BE123B30A702B831203130630B20064
:10070000BB01B9013914B9143915A330BA00A820B6
:100710008312031331143F30A5000000A50B8D2B6D
:10072000B1100800831203133208073A0319AD2BE6
:100730000130E3238430E323B30108308A00330817
:100740008B20FF398A110A120319A92BE123B30A5E
:100750009D2B831203130730B20008008316F0307C
:1007600088050813881208128312081388120812C9
:10077000F0308805033088041430F7230816081277
:100780000530F723081608120130F723081608125F
:100790000530F723F0308805023088040816081267
:1007A0000530F7232830E3230530F7230830E3230F
:1007B0000C30E3230630E3230130E3236430F723D6
:1007C00008000817E52B0813E52B8812A400F03069
:1007D0008805240E0F39880408160812F0308805A1
:1007E00024080F3988040816081201240800A40000
:1007F000FF30A50000000000A50BFA2BA40BF82B7E
:100800000800C830A400252408138816081608120A
:1008100008080816081208390319132CA40B062C13
:10082000A4012B2401342B2400342524081388161A
:100830000816081208080739A400A40E08160812A2
:1008400008080F3924042B24080083160F300804ED
:100850008800831208008316F03008058800831290
:1008600024080800E123260A103ABF300319E323C5
:10087000260A503A01300319E323260A503A803001
:080880000319E323A60A080096
:1010000082077E347D347B347734BE34BD34BB34C8
:10101000B734DE34DD34DB34D734EE34ED34EB3446
:10102000E7348207013402340434083410342034A5
:101030004034803482072A343034233452343734F5
:101040003834393444343434353436345534313426
:10105000323433345634820750344F3457344534A5
:10106000523420344F344E342034523445345334C7
:1010700045345434003482075334543441344E34AC
:101080004434423459340034820755344E344C349D
:101090004F3443344B3445344434213400348207D4
:1010A000453473346334723469346234693472346D
:1010B00020346D3465346E34733461346A3465348D
:1010C00001344C3465346534723420346D34653405
:1010D0006E34733461346A346534003482074D34BD
:1010E0006134723463346134203465346C342034B8
:1010F0006E3475346D34653472346F343A3401347F
:101100000034820745346E347634693461346E3489
:1011100064346F340034820745346E347634693475
:10112000613464346F342134003482002034453417
:1011300030342034563430340D34003426344634C0
:1011400030340D3400342B3443344D34473453346D
:061150003D34223400349E
:00000001FF
