:020000040000FA
:0A00060073298B13A0000308A1006A
:1000100083010408A2000A08A3008A018301851055
:100020008A018C1A38293B1B03298C182C280B18A1
:100030004F28831203132A082B07031D05100319E9
:10004000051485148312031323088A0022088400F0
:1000500021088300200809008030A7002C082A0608
:10006000031D77208430A7002C082A06031D772063
:100070008830A7002D082B06031D77208C30A700A1
:100080002D082B06031D77208C10121183160313E5
:100090008C108312031386010B108B150E28A701F9
:1000A0008601861F77200430A7008601061F77206F
:1000B0000830A7008601861E77200C30A700860135
:1000C000061E77202C082A06A8002D082B062804D7
:1000D000031DBA208312031386012C082A06A800E8
:1000E0002D082B062804031D8B110B100E28083039
:1000F0008A0027080F3900208A110A12B120A900AE
:10010000AE0127081038291C2038A71B2038AE0064
:100110009820A71B8C2891282708291C2038AE007E
:1001200098208601A70A27080339031908007728B1
:100130002A302E1A023EAE19013E840008308A0091
:100140002E08073911208A01A80000082805031D80
:10015000AD282808AE1E800408002808AE1A8006C4
:100160000800A8008600A80906092805F039031D23
:1001700001340034831603138C14FF309200831271
:1001800003138C10920091018C10080086018316D5
:100190000317890183160313F030950083160313A8
:1001A0008600811383160313FF3096008312031316
:1001B000AC01AD01AA01AB018B150B17080083162A
:1001C00003170830870083160313083099009A013B
:1001D000243098008C160C12831203139030980070
:1001E000BB01BC01BD0108003B17413099005430F0
:1001F0009900831603130C16831203130800990049
:1002000008001A0808000C1E15283B181229BB18F4
:1002100021293B192E29BD01BC013B138316031371
:100220000C120E2808308A003C086620FF3903199A
:100230003B10BC0A8A110A123B18FF203B1CBC0170
:100240000E283C08103E8317840000080319BB10D9
:10025000BC0ABB18FF20BB1CBC010E283C08662151
:1002600003193B11BC0A3B19FF203B1DBC010E28A2
:100270003D081F3E84008317012180000D300006D9
:100280000319BB17BD0A0E28831603130C12831221
:100290000313AF01B001B1010800831203178C00F2
:1002A00083120313311C300883120317311C8D0095
:1002B000831603178C130C158B138B1B5C2955307D
:1002C0008D00AA308D008C140C11090083120317C5
:1002D0008D00831603178C130C14831203170C085C
:1002E0008312031308008B138A110A12C6208A1185
:1002F0000A12BA218A110A123B248A110A12DF203B
:100300008A110A12B201B301B401B5018B17013091
:100310008A003208003A0319C82102308A0083019A
:100320003208013A0319072202308A008301320899
:10033000023A0319602202308A0083013208033A2C
:100340000319A52202308A0083013208043A0319F6
:10035000D92203308A0083013208053A0319762333
:1003600004308A0083013208063A031900248A11F6
:100370000A128729831603178801831603130510B1
:100380008510051183120313051485140515080043
:10039000003083120313B200331CD8290511B31C9B
:1003A000FA29331D072A2B082A04031D33100800DD
:1003B000BD01BB013B143B176730BC00F420831622
:1003C00003130C168312031333140130702481308D
:1003D0007024B50108308A0035081A20FF398A11C7
:1003E0000A120319F6296E24B50AEA290530B40069
:1003F000B3100800BB1F08001F30840083170008DB
:10040000303A0319B314B31C3310BD010800831232
:1004100003133208013A031DB3010130B200122266
:100420002E220800831203133408013A031908002E
:100430000130702485307024B50108308A003508F9
:100440002A20FF398A110A120319292A6E24B50AB3
:100450001D2A831203130130B40008008312031312
:100460002B08031DB3012A08DE39031DB301331C19
:10047000412AB31C492A331D512AB31D592A331E60
:10048000602A2A1833142A1C3310AA1A3310B31006
:1004900008002A1C3310AA1AB314AA1EB310331171
:1004A00008002A1833112A1C3315AA1EB310B311E1
:1004B00008002A183311AA1AB311AA1EB31508008E
:1004C000831203133208023A031DB3013230FF20B6
:1004D0000230B2006F228B22B318A52A08008312C3
:1004E00003133408023A03190800013070248530E0
:1004F0007024B50108308A0035083320FF398A118D
:100500000A120319862A6E24B50A7A2A8312031363
:100510000230B4000800331C8F2AB31C972A2A0823
:100520002B0403193314B3106730FF200800AA0806
:10053000031D33102B08FE39031D3310AB1B33157D
:10054000331DB3144730FF20080083120313320811
:10055000033A031DB3013330FF200330B200B4224D
:100560008B22B31CD92A0800831203133408033AE0
:10057000031908000130702480307024B501083060
:100580008A0035083E20B300FF398A110A12031988
:10059000D12AB30BCE2AD622B50ABF2A6E24B50AB9
:1005A000BF2A831203130330B4000800C030702444
:1005B0000800831203133208043A031DE522343085
:1005C000FF2003308400EF220800B601BA01AF011A
:1005D000B001A601013070240430B20008002A08DE
:1005E0002B04031DF52A03196F2BB701B9012A0843
:1005F0000319052BB80003101030B900B80C03180C
:10060000B70AB90AB919052BFE2A2B080319132BAF
:10061000B800FF30B9000310B80C0318B70AB90AC4
:10062000B919132B0C2BB70B0800B9012B08031DAC
:10063000B915B91D2A08B800B80C0318B70A37183D
:10064000232BB90A1C2B36080F393906031D2F2B13
:1006500003192A2B3A182F2BBA1808002F2B3A1CF3
:10066000080003308A0036080F398207462B482BD2
:100670004A2B4C2B4D2B4F2B512B532B542B562BA2
:10068000582B5A2B5B2B5D2B5F2B612B2A30632B56
:100690003030632B2330632BA52A3730632B38305F
:1006A000632B3930632B682B3430632B3530632B4D
:1006B0003630632B682B3130632B3230632B333071
:1006C000632B0030632BB800BF24380831104D2154
:1006D000B8080319762B38080F39B60008005330D4
:1006E000FF206300831203133A14080083120313DC
:1006F0003208053A031DE5227E2308002A082B0450
:10070000031D842B03196F2BB7012A080319932BA0
:10071000B80003101030B900B80C0318B70AB90AB2
:10072000B919932B8C2B2B080319A02BB800BF30C1
:10073000B900B80C0318B70AB90AB919A02B992B3C
:10074000B70B0800B9012B080319B915B91D2A0800
:10075000B800B80C0318B70A3718B02BB90AA92B80
:1007600036080F393906031DBC2B0319B72B3A186D
:100770000800BA180800BC2B3A1C080003308A0095
:1007800036080F398207D32BD52BD72BD92BDA2B51
:10079000DC2BDE2BE02BE12BE32BE52BE72BE82BEF
:1007A000EA2BEC2BEE2B2A30F02B3030F02B2330C1
:1007B000F02BD92A3730F02B3830F02B3930F02B92
:1007C000F82B3430F02B3530F02B3630F02BF82B63
:1007D0003130F02B3230F02B3330F02B2230F82B2D
:1007E000B800BF24831726300F3E840038088000ED
:1007F0003808223A0319002C38080F39B6000800CF
:10080000831203133208063A031DB3010630B20007
:10081000331C1024B31CFA21331DA52A63000800E1
:10082000831203133408043A0319080001307024BA
:1008300085307024B50108308A0035085C20FF3906
:100840008A110A120319272C6E24B50A1B2C831255
:1008500003130430B400073083120313BB00743059
:10086000BC00F4208312031333143F30A5000000B2
:10087000A50B372C08008316F03088050813881262
:1008800008128312081388120812F030880503300A
:1008900088041430842408160812053084240816AD
:1008A0000812013084240816081205308424F03020
:1008B0008805023088040816081205308424203088
:1008C000702405308424083070240C3070240630E5
:1008D0007024013070246430842408000817722CBE
:1008E0000813722C8812A400F0308805240E0F39EA
:1008F000880408160812F030880524080F39880487
:10090000081608128E240800A400FF30A50000007D
:100910000000A50B872CA40B852C0800C830A40070
:10092000B2240813881608160812080808160812B8
:1009300008390319A02CA40B932CA401B82401346A
:10094000B8240034B22408138816081608120808C0
:100950000739A400A40E0816081208080F39240449
:10096000B824080083160F3008048800831208009A
:100970008316F030080588008312240808008312CB
:100980000313A50080302604702425086E24260A4F
:10099000203A0319A616260A503AFF300319A6007A
:0409A000A60A08009B
:1010000082077E347D347B347734BE34BD34BB34C8
:10101000B734DE34DD34DB34D734EE34ED34EB3446
:10102000E7348207013402340434083410342034A5
:1010300040348034820750344F345734453452346E
:1010400020344F344E3420345234453453344534F4
:101050005434003482075334543441344E344434CD
:10106000423459340034820755344E344C344F34B2
:1010700043344B34453444342134003482074534FE
:1010800073346334723469346234693472342034B2
:101090006D3465346E34733461346A3465340134CC
:1010A0004C3465346534723420346D3465346E34B8
:1010B000733461346A346534820745346E3476346F
:1010C000693461346E3464346F3400348200203407
:1010D000453430342034563430340D340034263422
:1010E000463430340D3400342B3443344D344734DB
:0810F00053343D342234003476
:00000001FF
