:020000040000FA
:0A00060042298B13A0000308A1009B
:1000100083010408A2000A08A3008A018301851055
:100020008A018C1AEF28391BB8288C1830280B1835
:100030006E20831203132A082B04031D05100319D5
:1000400005140D1E05150D1A0511851483120313D1
:1000500023088A0022088400210883002008090060
:10006000A7013D208C101211831603138C108312EC
:10007000031386010B108B150E2808308A00270801
:100080000F3900208A110A126520A9002708AC0048
:10009000291C2C165120A70A27080F39031D3D28BB
:1000A00008002A30AC19013E840008308A002C0870
:1000B00007391120A8008A110A122C1E622828096B
:1000C00080050800280880040800A8008600A80908
:1000D00006092805F039031D013400348316031383
:1000E0008C14FF309200831203138C109200910144
:1000F0008C108B110B1008008601831603178901E1
:1001000083160313F03095008316031386008113C2
:1001100083160313FF30960083120313AA01AB0169
:100120008B150B17080083160317083087008316FA
:100130000313083099009A01243098008C160C1291
:100140008312031390309800B901BA01BB01080073
:1001500039174130990054309900831603130C1657
:1001600083120313BB010800990008001A08080055
:100170000C1E15283918C728B918D6283919E328AC
:10018000BB01BA013913831603130C120E28083071
:100190008A003A089520FF3903193910BA0A8A11E2
:1001A0000A123918B420391CBA010E283A08103E38
:1001B0008317840000080319B910BA0AB918B420CB
:1001C000B91CBA010E282F143A082D21FF39031942
:1001D00039113919B420BA0A391DBA010E283B0861
:1001E0001F3E84008317B62080000D3A0319B9170B
:1001F000840A8001BB0A0E28831603130D12831292
:100200000313AD01AE01AF010800831203178C0088
:10021000831203132E08831203172F1C8D008316DD
:1002200003178B138B1B11298C130C1555308D0064
:10023000AA308D008C148C181B29831203130D1EF9
:100240001F290F3021240D12831603170C118B1751
:10025000831203132F1CAE0A08002F1C2D088312D3
:1002600003178D00831603178C130C140C183629F2
:1002700083120313831203170C08831203132F1C1A
:10028000AD0A08008B138A110A127C208321D8231F
:1002900093208A110A12B001B101B201B3018B1788
:1002A00001308A003008003A0319912101308A0098
:1002B00083013008013A0319F82102308A008301D2
:1002C0003008023A0319512202308A0083013008B3
:1002D000033A0319902202308A0083013008043A5D
:1002E0000319C02203308A0083013008053A03193C
:1002F0003E2303308A0083013008063A031979232C
:100300008A110A12502983160317880183160313D2
:1003100005108510051183120313051485140515A6
:100320000800003083120313B000AB1B3110AB1B6D
:100330000800AA19A221311CB129B11CCE29311DF6
:10034000F8290800C0300D241F30840083170008EE
:10035000031908000B24040A293A03190800840A27
:10036000A729B90139149630BA00A82083120313C3
:10037000311401300D2481300D24B30108308A007E
:1003800033082B20FF398A110A120319CA290B24BA
:10039000B30ABE290130B200B1100800B91F08002D
:1003A0001E3083178400840A0008031DD3298403A8
:1003B00000080A3A0319DD29840A840300080D3A6B
:1003C0000319E22984030008303A0319B114B11C5F
:1003D000EB2931110800B11BF529B5012F3021247B
:1003E000B50FEE29B91FB117CE293110B110080091
:1003F000831203133008013A031DB1010130B0002C
:1004000003221F2A0800831203133208023A031939
:10041000080001300D2485300D24B30108308A0016
:1004200033083B20FF398A110A1203191A2A0B24B8
:10043000B30A0E2A831203130230B200080083129B
:1004400003132B08031DB1012A08FA39031DB1015A
:10045000311C322AB11C3A2A311D422AB11D4A2AC6
:10046000311E512A2A1831142A1C31102A19311030
:10047000B11008002A1C31102A19B1142A1DB1101C
:10048000311108002A1831112A1C31152A1DB1100A
:10049000B11108002A1831112A19B1112A1DB115FC
:1004A0000800831203133008023A031DB101023021
:1004B000B0005E227A223119902A080083120313B9
:1004C0003208033A0319080001300D2484300D244A
:1004D000B30108308A0033084420FF398A110A1218
:1004E0000319752A0B24B30A692A831203130330F4
:1004F000B2000800311C7E2AB11C842A2A082B0471
:1005000003193114B1100800AA08031D31102B087B
:100510007F39031D3110AB1B3115311DB11408009B
:10052000831203133008033A031DB1010330B000F6
:100530009D227A223119C02A08008312031332083F
:10054000043A0319080001300D2480300D24B30152
:1005500008308A0033084F20B100FF398A110A128F
:100560000319BB2AB10BB82AC0300D24B30AA82A3C
:100570000B24B30AA82A831203130430B200080024
:10058000831203133008043A031DC722EA2AB40178
:10059000B101B801A60101300D2480300D24B30152
:1005A00008308A0033086E20B100FF398A110A1220
:1005B0000319E32AB10BE02AC0300D24B30AD02A74
:1005C0000B24B30AD02A831203130530B20004307F
:1005D000B0000800311CF02AB11CF62A311D102B86
:1005E0002A082B0403193114B11008002A082B041F
:1005F000031908001D238A110A12B600563A03197E
:10060000B114031D311003190E2B36080B241030C2
:1006100034078400831736088000B40A31110800BB
:10062000103034078400831722308000840A0D3094
:100630008000840A003080003E2B8B13B7012A080B
:1006400003192B2BB6000310B60C0318392BB70A6D
:100650000310B71D242B0830B7002B08B600031079
:10066000B60C0318392BB70A0310371E302B8B1723
:1006700021348B1708308A0037081A288312031395
:100680003008053A031D4623542B08008301B401AA
:10069000B801B101AD01AE01A60101300D248030D9
:1006A0000D240530B0000800311CF02AB11C5A2B73
:1006B000311D712B2A082B04031908001D238A11F0
:1006C0000A12B600563A0319B114031D311003196A
:1006D0006F2B2F10360805212D2136085C2431118F
:1006E00008002F101A3005212D21FF302124003061
:1006F0000521831203133008063A031D88230630B0
:10070000B000311C902BB11CCE29311DBC2B080030
:10071000B10101300D2480300D240630B0000800F6
:10072000831203133208063A0319AB2B01300D2450
:1007300084300D24B30108308A0033088120FF394A
:100740008A110A120319A72B0B24B30A9B2B8312BD
:1007500003130630B200B9013914B9143915A130A8
:10076000BA00A8208312031331143F30A500000003
:10077000A50BB72BB1100800831203133208073AF8
:100780000319D72B01300D2484300D24B301083018
:100790008A0033088B20FF398A110A120319D32BE0
:1007A0000B24B30AC72B831203130730B2000800CF
:1007B0008316F03088050813881208128312081374
:1007C00088120812F0308805033088041430212480
:1007D00008160812053021240816081201302124B9
:1007E0000816081205302124F030880502308804EC
:1007F000081608120530212428300D240530212444
:1008000008300D240C300D2406300D2401300D2449
:1008100064302124080008170F2C08130F2C8812AD
:10082000A400F0308805240E0F3988040816081239
:10083000F030880524080F398804081608122B2484
:100840000800A400FF30A50000000000A50B242C28
:10085000A40B222C0800C830A4004F2408138816CB
:1008600008160812080808160812083903193D2C42
:10087000A40B302CA40155240134552400344F24FA
:10088000081388160816081208080739A400A40ED1
:100890000816081208080F39240455240800831686
:1008A0000F3008048800831208008316F030080512
:1008B0008800831224080800A500260A03190130C5
:1008C00003190D24803026040D2425080B24260A44
:1008D000103A3F300319A600260A503AFF30031998
:0608E000A600A60A0800B4
:1010000082077E347D347B347734BE34BD34BB34C8
:10101000B734DE34DD34DB34D734EE34ED34EB3446
:10102000E7348207013402340434083410342034A5
:101030004034803482072A343034233452343734F5
:101040003834393444343434353436345534313426
:10105000323433345634820750344F3457344534A5
:10106000523420344F344E342034523445345334C7
:1010700045345434003482075334543441344E34AC
:101080004434423459340034820755344E344C349D
:101090004F3443344B3445344434213400348207D4
:1010A000453473346334723469346234693472346D
:1010B00020346D3465346E34733461346A3465348D
:1010C00001344C3465346534723420346D34653405
:1010D0006E34733461346A346534003482074D34BD
:1010E0006134723463346134203465346C342034B8
:1010F0006E3475346D34653472346F343A3401347F
:101100000034820745346E347634693461346E3489
:1011100064346F340034820745346E347634693475
:10112000613464346F342134003482004534303407
:10113000563430340D3400342634463430340D34D3
:1011400000342B3443344D34473453343D3422344B
:02115000003469
:00000001FF
