:020000040000FA
:0A00060004281120B00130089520F5
:10001000FF390319102844200130B00730080628A2
:1000200010288316F03088050813881208128312EE
:10003000081388120812F030880503308804143041
:100040005A200816081205305A20081608120130E6
:100050005A200816081205305A20F0308805023060
:1000600088040816081205305A2020304620053032
:100070005A20083046200C304620063046200130F9
:10008000462064305A2008000817482808134828DA
:100090008812A000F0308805200E0F398804081659
:1000A0000812F030880520080F3988040816081255
:1000B00064200800A000FF30A10000000000A10B98
:1000C0005D28A00B5B280800C830A000882008131A
:1000D00088160816081208080816081208390319A5
:1000E0007628A00B6928A0018E2001348E200034D0
:1000F0008820081388160816081208080739A00077
:10010000A00E0816081208080F3920048E200800D7
:1001100083160F3008048800831208008316F0301D
:1001200008058800831220080800820748346F34CD
:100130006C34613420344D3475346E3464346F342F
:040140002134003432
:00000001FF
